:03000000020003F8
:0C000300787FE4F6D8FD75810C02004AFD
:03016200010C028B
:1000E800C2A385A090AF0C7E00120103C2A0D2A1CA
:0B00F800C2A2C2A385A090AF0C7E0046
:10010300EF1FAC0670011E4C600A7D027CEFDCFE23
:04011300DDFC80ECA3
:0101170022C5
:10013E00D2A0C2A1C2A21200E8C2A0C2A1D2A21233
:10014E0000FAC2A0C2A1C2A2D2A385A090AF0C7E1B
:04015E000002010397
:10011800C2A0C2A1C2A2D2A31200FCC2A0C2A1D294
:10012800A21200E8D2A0C2A1C2A2C2A385A090AF29
:060138000C7E0002010331
:10008F007F1E7E00120103E4F508F50912013E05FB
:10009F0009E50970020508C394F4E508940140ECE2
:1000AF00C2A0C2A1C2A2C2A37FE87E03120103E4D1
:1000BF00F50AF50B120118050BE50B7002050AC3C3
:1000CF0094F4E50A940140ECC2A0C2A1C2A2C2A35B
:0900DF007FE87E0312010380AEEC
:10000F0002008FE493A3F8E493A34003F68001F278
:10001F0008DFF48029E493A3F85407240CC8C333F2
:10002F00C4540F4420C8834004F456800146F6DFC1
:10003F00E4800B0102040810204080900162E47EEE
:10004F00019360BCA3FF543F30E509541FFEE493B6
:10005F00A360010ECF54C025E060A840B8E493A37D
:10006F00FAE493A3F8E493A3C8C582C8CAC583CAA8
:10007F00F0A3C8C582C8CAC583CADFE9DEE780BE60
:010165000099
:00000001FF
