:0300000002009C5F
:0C009C00787FE4F6D8FD7581640200E373
:10032E000229009602390096023700960232009694
:10033E000224009602260096023B000002210000D5
:07034E00023D000001340034
:1003A600C290D29175A0FFD292AFA0C292EF20E781
:0103B600F353
:0103B7002223
:06037600ED24B8FFD202E5
:10037C00C290C291A202B39294A20292938FA0D285
:05038C009200C2922264
:06035600120301FFD203B7
:10035C00AE071203A6D290C291A203B39294A20349
:0A036C0092938EA0D29200C292225A
:10022800C2B70000D2B7C2027F3F12037CC2027F6E
:10023800C012037CC2027FB812037CC2027F401244
:10024800037CD2021F12037CD2027FC012037CD22D
:0D025800027FB812037CD2027F4002037CBB
:10026500E4FDED24B8FFC20212037CC2027F4012F6
:10027500037C120376D2027F4012037CE4FCC203A6
:10028500E4FF12035CD203E4FF12035C0CBC40EEF6
:040295000DBD08CEC5
:010299002242
:0A01AD008B088A09890A8C0B8D0C5F
:1001B700E4F50FC3E50F950CE4950B5063E50D24AB
:1001C700B8FFC20212037CE50D120377E50E250F77
:1001D700FFE433FEC3EF9440EE64809480E50E5055
:1001E7001E2440250FFFC20212037CAB08AA09A9EF
:1001F7000A850F82758300120301FFC203801A2547
:100207000FFFD20212037CAB08AA09A90A850F8245
:10021700758300120301FFD20312035C050F80935D
:0102270022B4
:060128008B108A11891200
:10012E00E4F513E51324B8FFC20212037CC2027F6A
:10013E004012037CE4F514AB10AA11A91275F080DD
:10014E00E513A42514F582E435F0F583120301FFBF
:10015E00C20312035C0514E514C3944040D9E513A1
:10016E00120377D2027F4012037CE4F514E5137577
:10017E00F080A42440FFE435F0FEE5142FF582E470
:10018E003EF583AB10AA11A9121203560514E514FD
:0E019E00C3944040D80513E513C39408408570
:0101AC002230
:10029A00AE07AC03EEC39440ED501724B8FFC20278
:1002AA0012037CEE2440FFC20212037CAF04C20395
:1002BA00800E120377AF06D20212037CAF04D20378
:0402CA0012035C229D
:0602CE008B158A1689174A
:1002D400E4FD120376D2027F5412037CE4FCAB15D6
:1002E400AA16A91775F02CEDA42CF582E435F0F5C7
:0C02F400831203560CBC2CE60DBD08D68E
:0103000022DA
:10039100E4FAAD027BFF7F1E12029A7F4712029A96
:0403A1000ABA08EE9E
:0103A5002235
:10000300E4FAE4F9E4F518EA25E025E0243FF8E60C
:10001300FE08E6FFC3740C99FDEFA805088005CE22
:10002300C313CE13D8F930E00375180FEA25E02582
:10003300E02441F8E6FE08E6A805088005CEC313D0
:10004300CE13D8F930E0034318F0E925E025E02486
:100053001FFFAD02AB1812029AE925E025E0242028
:10006300FFE51854BBFB12029AE925E025E02421A1
:10007300FFE51854DDFB12029AE925E025E024226E
:10008300FFAB1812029A09E9640A60030200070A27
:08009300EA64086003020005A5
:01009B002242
:1000A800020000E493A3F8E493A34003F68001F26E
:1000B80008DFF48029E493A3F85407240CC8C33359
:1000C800C4540F4420C8834004F456800146F6DF28
:1000D800E4800B010204081020408090032EE47E87
:1000E800019360BCA3FF543F30E509541FFEE4931D
:1000F800A360010ECF54C025E060A840B8E493A3E4
:10010800FAE493A3F8E493A3C8C582C8CAC583CA0E
:10011800F0A3C8C582C8CAC583CADFE9DEE780BEC6
:0103550000A7
:10030100BB010CE58229F582E5833AF583E02250B1
:1003110006E92582F8E622BBFE06E92582F8E222FB
:0D032100E58229F582E5833AF583E4932215
:00000001FF
