:0300000002012ECC
:0C012E00787FE4F6D8FD75813902017578
:1000260041542B43495053454E443D302C390041F1
:10003600542B43574D4F44453D310041542B5253A9
:10004600540041542B43574C41500041542B4357C5
:100056004A41503D2254502D4C494E4B5F38463450
:1000660045222C22220041542B4349504D55583DE0
:10007600300041542B43495053544152543DA1B092
:10008600544350A1B12CA1B06170692E73656E699D
:1000960076657273652E636F6DA1B12C38300041A1
:1000A600542B4349504D4F44453D310041542B4359
:1000B600495053454E440047455420687474707344
:1000C6003A2F2F6170692E73656E69766572736556
:1000D6002E636F6D2F76332F776561746865722F87
:1000E6006E6F772E6A736F6E3F6B65793D536158FD
:1000F60056554864636B4F56413638393965266C18
:100106006F636174696F6E3D6265696A696E6726C1
:100116006C616E67756167653D7A682D48616E73BF
:0801260026756E69743D63004B
:10036200C10009214F4B20000000000000013900AC
:0902D6007BFF1202FE7FC87E00CE
:0802DF00C3EE64809480401618
:0F02E70000000075080B7509BED509FDD508FA92
:0802F600EF1F70E51E80E222FB
:070350001203737F057E001C
:0B035700EF1FAC0670011E4C70F62278
:10000300E4FDFCC3ED9FEC9E5015E4FBFA0BBB0033
:0F001300010AEB64644A70F50DBD00010C80E436
:0100220022BB
:10033D00759850758920758DFD758BFDC2ACD2AF4A
:03034D00D28E222B
:0C037300C2AC8F993099FDC299D2AC2227
:1002FE00120324FF600C120350740129F9E43AFA38
:10030E0080EE1203537F0D1203507F0A1203737F88
:06031E00E87E030200036B
:0602A6008B088A09890A99
:1002AC00E4FD7BFF7A0079261202FEE4FDAB08AA7E
:1002BC0009A90A120324FF1203507401250AF50A36
:0902CC00E43509F5090DBD09E452
:0102D5002206
:1001BA007BFF7A0079351202FE7BFF7A00794112C1
:1001CA0002FE7FE87E031200037BFF7A0079481261
:1001DA0002FE7FF47E011202DF7BFF7A0079511260
:1001EA0002FE7F207E031202DF7BFF7A00796C1207
:1001FA0002FE7F207E031202DF7A0079781202D68D
:10020A007A0079A51202D67BFF7A0079B21202D857
:09021A007BFF7A0079BD0202FEAF
:100275007FE87E031202DF75A0FFD2A3D2A2D2A728
:10028500D2A612033D1201BAD2AC30000BC2007BDC
:10029500007A0079211202A67F0A7E0012000380EF
:0102A500E96F
:03002300020223B3
:10022300C0E0C0D075D000C00030983FC298742A97
:100233002539F8A699E52AB42B04053980037539C5
:1002430000E539640A7024F539E52AB42B1DE52B42
:10025300B44918E52CB45013E52DB4440EE533240A
:10026300CF7004C2A68002D2A6D200D000D0D0D0D4
:02027300E03277
:10013A00020275E493A3F8E493A34003F68001F264
:10014A0008DFF48029E493A3F85407240CC8C333C6
:10015A00C4540F4420C8834004F456800146F6DF95
:10016A00E4800B0102040810204080900362E47EC0
:10017A00019360BCA3FF543F30E509541FFEE4938A
:10018A00A360010ECF54C025E060A840B8E493A351
:10019A00FAE493A3F8E493A3C8C582C8CAC583CA7C
:1001AA00F0A3C8C582C8CAC583CADFE9DEE780BE34
:01037200008A
:10032400BB010689828A83E0225002E722BBFE02D7
:09033400E32289828A83E493220A
:00000001FF
