:03000000020026D5
:0C002600787FE4F6D8FD75813202006D91
:100230004F4B0041542B5253540D0A0041542B4351
:10024000574D4F44453D320D0A0041542B43495010
:100250004D55583D310D0A0041542B4349465352E8
:100260000D0A0041542B4349505345525645523DC7
:09027000312C383038300D0A0041
:1000030014090000000000000000000000000000D0
:09001300000000000000010800DB
:0802C1008F328E318D308C2F3D
:1002C900D3EF9400EE940040147D6E7C00ED1D7018
:0D02D900011CED4C70F7EF1F70E61E80E376
:0102E60022F5
:050329007BFF1203162A
:0C032E007F5F7E1A7DB9DDFEDEFADFF68F
:01033A0022A0
:10030000758920759850758DFA858D8BE4F587D2A7
:06031000AFD2ACD28E2238
:0E033B00C2ACC2998F993099FDC299D2AC2202
:030023000202795D
:10027900C0E0C0D075D000C000309835C29874096C
:100289002508F8A699050874072508F8E6B40D1796
:1002990074082508F8E6B40A0EE508C39402400775
:1002A900750800D200800AE508D394144003750844
:0802B90000D000D0D0D0E032EB
:100316001202E7FF600C12033B740129F9E43AFA72
:0303260080EE2244
:1000B200C2937A02793312032912032E7A02793C0F
:1000C2001203293000F68B267527027528307B0033
:1000D2007A007909120135EA494B60E0C200C29008
:1000E2007BFF7A02794A12031612032E3000F18B3B
:1000F200267527027528307B007A007909120135AE
:10010200EA494B60DBC200C2917BFF7A027963123B
:10011200031612032E3000F18B2675270275283044
:100122007B007A007909120135EA494B60DBC20093
:03013200C2922254
:0C0349007F7B7ED47D19DDFEDEFADFF63E
:010355002285
:1001B700E4F5A0C2B41203001200B2E509B42BFBA8
:1001C700E50AB449F6E50BB450F1E50CB444ECE5A7
:1001D7000FB42CE7E512B4312312034975A0FF12BF
:1001E700032EE4F521F52274092522F8762005224D
:1001F700E522700205216414452170EBE512B43045
:10020700BAE4F5A012032EF521F522C3E5229414D2
:10021700E5216480948050A374092522F87620058F
:0902270022E52270E6052180E2C7
:100032000201B7E493A3F8E493A34003F68001F22C
:1000420008DFF48029E493A3F85407240CC8C333CF
:10005200C4540F4420C8834004F456800146F6DF9E
:10006200E4800B0102040810204080900003E47E2B
:10007200019360BCA3FF543F30E509541FFEE49393
:10008200A360010ECF54C025E060A840B8E493A35A
:10009200FAE493A3F8E493A3C8C582C8CAC583CA85
:1000A200F0A3C8C582C8CAC583CADFE9DEE780BE3D
:01001C0000E3
:1002E700BB010689828A83E0225002E722BBFE0215
:0902F700E32289828A83E4932248
:100135008B238A248925AB26AA27A9281202E760E2
:1001450063AB23AA24A9251202E7605F85262985CA
:10015500272A85282B8B2C8A2D892EAB29AA2AA9FB
:100165002B1202E7FF6023AB2CAA2DA92E1202E762
:100175006F701704252BF52BE4352AF52A74012514
:100185002EF52EE4352DF52D80D1AB29AA2AA92BE4
:100195001202E77002800D74012525F525E435244A
:1001A500F524809DAB23AA24A925227B007A00791A
:0201B500002226
:00000001FF
