:03000000020026D5
:0C002600787FE4F6D8FD75813902006D8A
:1000B20041542B43495053454E443D302C39004165
:1000C200542B43574D4F44453D320041542B435727
:1000D2005341503D224C5153B5C4D6C7C4DCC0ACC9
:1000E200BBF8CDB0222C22313233343536373822A8
:1000F2002C352C340041542B43495041503D223180
:1001020039322E3136382E342E32220041542B52BF
:1001120053540041542B4349504D55583D310041F1
:10012200542B4349505345525645523D312C383099
:0301320038300062
:1002A100C10009214F4B200000000000000139006E
:08024400C3EE648094804016B3
:0F024C0000000075080B7509BED509FDD508FA2D
:08025B00EF1F70E51E80E22296
:07028F001202B27F057E00A0
:0B029600EF1FAC0670011E4C70F6223A
:10000300E4FDFCC3ED9FEC9E5015E4FBFA0BBB0033
:0F001300010AEB64644A70F50DBD00010C80E436
:0100220022BB
:10027C00759850758920758DFD758BFDC2ACD2AF0C
:03028C00D28E22ED
:0C02B200C2AC8F993099FDC299D2AC22E9
:10021E00120263FF600C12028F740129F9E43AFA9C
:10022E0080EE1202927F0D12028F7F0A1202B27FAF
:06023E00E87E030200034C
:0601EE008B088A09890A52
:1001F400E4FD7BFF7A0079B212021EE4FDAB08AA8B
:1002040009A90A120263FF12028F7401250AF50A72
:09021400E43509F5090DBD09E40A
:01021D0022BE
:100187007BFF7A0079C112021E7BFF7A0079CD12BC
:10019700021E7BFF7A0079F712021E7BFF7A017934
:1001A7000E12021E7BFF7A01791512021E7BFF7A5F
:0601B70001792102021E85
:1001BD007FE87E0312024475A0FFD2A3D2A2D2A77C
:1001CD00D2A612027C120187D2AC30000BC2007B8A
:1001DD00007A0079211201EE7F0A7E001200038061
:0101ED00E928
:03002300020135A2
:10013500C0E0C0D075D000C00030983FC298742A86
:100145002539F8A699E52AB42B04053980037539B4
:1001550000E539640A7024F539E52AB42B1DE52B31
:10016500B44918E52CB45013E52DB4440EE53324F9
:10017500CF7004C2A68002D2A6D200D000D0D0D0C3
:02018500E03266
:100032000201BDE493A3F8E493A34003F68001F226
:1000420008DFF48029E493A3F85407240CC8C333CF
:10005200C4540F4420C8834004F456800146F6DF9E
:10006200E4800B01020408102040809002A1E47E8B
:10007200019360BCA3FF543F30E509541FFEE49393
:10008200A360010ECF54C025E060A840B8E493A35A
:10009200FAE493A3F8E493A3C8C582C8CAC583CA85
:1000A200F0A3C8C582C8CAC583CADFE9DEE780BE3D
:0102B100004C
:10026300BB010689828A83E0225002E722BBFE0299
:09027300E32289828A83E49322CC
:00000001FF
