:03000000021342A6
:0C134200787FE4F6D8FD75816402138901
:10000E0020042004200420042004200420042004C2
:10001E0020042004200420042004200420042004B2
:10002E00FFFF0000000046494931007F0909060024
:10003E007F494949007F494949007F41413E464930
:10004E004931003E414122003E41413E007F11298F
:10005E0046007F4949497F41417F0000007F794931
:10006E00494F4949497F0F08087F4F4949797F49D0
:10007E0049790101017F7F49497F4F49497F00003E
:10008E000000000000000000000000000000000062
:10009E0000406070787060400000000000000000BA
:1000AE000000000000000000000000000000000042
:1000BE000000000000000010387CFE000000000070
:1000CE00000000000000FE7C381000000000000060
:1000DE000000000000000000000000000000000012
:1000EE00000000000000000000040C1C3C1C0C046E
:1000FE0000000000000000000000000000000000F2
:10010E000000000000000000000000000682FE82D9
:10011E0006000000000000000000000000000000CB
:10012E00CC929292660000000000000000000000D9
:10013E000000000000000000F0F8F8F8F8F00000F1
:10014E000000000000000000000000F0F8F8F8F8D1
:10015E00F0000000000000000000007010F01070B1
:10016E00000000000001010141F04040400000404D
:10017E00C00040C000000040C141410140C04040AD
:10018E00C000000000000000C4272460000000052D
:10019E000000000000C32424C20020E0C304E427B2
:1001AE00040000040704040004070404070400000C
:1001BE00000000000C0909060000000A0000000003
:1001CE00000708080700080F01060F0000000000D6
:1001DE000000000000000000000000000000000011
:1001EE000000000000000000000000000000000001
:1001FE0000000000000000000000000000000000F1
:10020E0000000000000000000000000000000000E0
:10021E0000000000000000000000000000000000D0
:10022E0000000000000000000000000000000000C0
:10023E0000000000000000000000000000000000B0
:10024E0000000000000000000000000000000000A0
:10025E000000000000000000000000000000000090
:10026E000000000000000000000000000000000080
:10027E000000000000000000000000000000000070
:10028E000000000000000000000000000000000060
:10029E000000000000000000000000000000000050
:1002AE000000000000000000000000000000000040
:1002BE000000000000000000000000000000000030
:1002CE000000000000000000000000000000000020
:1002DE000000000000000000000000000000000010
:1002EE000000000000C0C0C080800000000080C080
:1002FE00C000E0E0E0C08000000000000000808050
:10030E008080C0C0C0C0C0C0C0C0C0C0C0C00000DF
:10031E000000000060E0E0E0000000F0F0E080008F
:10032E00000000000080808000000000000000003F
:10033E0000000000E0E0E0C08000000000000000CF
:10034E00000000000000000000000000000000009F
:10035E0000E0E0E00000000000000000000000C02F
:10036E00E0F078FCFEFF67637363FFFFFEF8FC7F2F
:10037E00FFFFDCECF1F30303000000000003075F56
:10038E00FDFBFFFFFDFFFFFFFF7F0F0301000000DE
:10039E00000000000003071FFFFFFBFFFFFFC5CE9D
:1003AE00FFFFFFE7F3F33B3B3000000000000000CF
:1003BE00383838303038B9DFFFFCFCEE0E06070750
:1003CE000000000000000030303EFEFE30F8F8F075
:1003DE00A6FFFFFFF6FFFFFFE66000000000000132
:1003EE000100008FFFFF7000187CFFFFFF6160703F
:1003FE00391FFFFFFBF9C0000000000000000000E5
:10040E000003C3E7FF7E1F3F79700000000000006D
:10041E00000000000607071F7F7F730F3F3F01019B
:10042E000F0F0FE0FFFF00000000000000000000B3
:10043E007070783C7EFFF7C3E1F87F3F000000004C
:10044E000000000000000000001C1F1F0F07E1E16C
:10045E00F97F3F07060E1E3CF8E0C00000000000CA
:10046E000000000303030000000000000000000075
:10047E00000000030707030000000000000000005A
:10048E000E0F070301000000000000000000000036
:10049E00000000000000000000000000000000004E
:1004AE000000040F0F01000000000000000000001B
:1004BE00000000000000010100000000000000002C
:1004CE00000000000000000000000000000000001E
:1004DE000000000000000000000303030000000005
:1004EE0000000000000000000000000000000000FE
:1004FE0000000000000000000000000000000000EE
:10050E0000000000000000000000000000000000DD
:10051E0000000000000000000000000000000000CD
:10052E0000000000000000000000000000000000BD
:10053E0000000000000000000000000000000000AD
:10054E00000000000000000000000000000000009D
:10055E00000000000000000000000000000000008D
:10056E00000000000000000000000000000000007D
:10057E00000000000000000000000000000000006D
:10058E00000000000000000000000000000000005D
:10059E00000000000000000000000000000000004D
:1005AE00000000000000000000000000000000003D
:1005BE00000000000000000000000000000000002D
:1005CE00000000000000000000000000000000001D
:1005DE00000000000000000000000000000000000D
:1005EE0000000000000000000000000000000000FD
:1005FE000000000000000000000000008080C0C06D
:10060E00C0C0C0C0C0C0C00000000000000080809C
:10061E0080808080808000000000000080808080CC
:10062E00808080800000000000000080808080803C
:10063E0080808000008080808080808080808080AC
:10064E00808080800000000000000000000000009C
:10065E00000000000000000000000000000000008C
:10066E00000000000000000000000000000000007C
:10067E0000000000000080F0FCFEFFFFFFFFFFFF08
:10068E00FFFFFFFFFFFFFF000000000080FEFFFFE7
:10069E00FFFFFFFFFFFFF880000000007FFFFFFF5E
:1006AE00FFFFFFFFFFF8E080E0F8FFFFFFFFFFFF17
:1006BE00FFFFFF0000FFFFFFFFFFFFFFFFFFFFFF3A
:1006CE00FFFFFF0F00000000000000000000000010
:1006DE00000000000000000000000000000000000C
:1006EE0000000000000000000000000000000000FC
:1006FE000000000000007FFFFFFFFFFFFFFFFF076E
:10070E00030170F0F0F0F0F0F00000F8FFFF3F078B
:10071E001FFFFFFFFFFFFFFFFCC0000000FFFFFFFA
:10072E00FFFFFFFFFFFFFFFFFFFFFFFFFFFFFFFFCB
:10073E00FFFF00000000FFFFFFFFFFFFFFFF7878C5
:10074E007878180000000000000000000000000093
:10075E00000000000000000000000000000000008B
:10076E00000000000000000000000000000000007B
:10077E000000000000000001070F1F1F3F3F7F7E9B
:10078E007C78787F7F7F7F7F00303F3F3F050C3C3A
:10079E001C0E1F3F3F3F3F3F3F3F3E30003F3F3F1E
:1007AE003F3F0001070F3F7F3F0F0701003F3F3FD5
:1007BE003F3F000000003F3F3F3F3F3F3F3F3C3C3D
:1007CE003C3C3C0C0000000000000000000000005B
:1007DE00000000000000000000000000000000000B
:1007EE0000000000000000000000000000000000FB
:1007FE000000000000000000C0F0F8FCFCFEFEFE51
:10080E00FEFEFEFEFCFCF8F0C000000C7CFCFCFCC6
:10081E00FCFCFCFCFCC00000F0FCFCFC7C0C00FCB6
:10082E00FCFCFCFCFCFCFCFCFCFCFCFCFC7C000072
:10083E00FCFCFEFEFEFEFEFEFEFEFEFEFEFCFCFCD4
:10084E00F8F0E08000000000000000000000000052
:10085E00000000000000000000000000000000008A
:10086E00000000000000000000000000000000007A
:10087E0000000000000000FEFFFFFFFFFFFF1F074C
:10088E0007071FFFFFFFFFFFFFFE000000031FFF14
:10089E00FFFFFFFFFFFFF8FFFFFF1F030000000732
:1008AE00FFFFFFFFFFFFFFFFC7C7C7C7C70000005F
:1008BE000FFFFFFFFFFFFFFFFF03038387FFFFFF16
:1008CE00FFFF7F1F0000000000000000000000007E
:1008DE00000000000000000000000000000000000A
:1008EE0000000000000000000000000000000000FA
:1008FE0000000000000000010F3F7FFFFFFFF0C06F
:10090E00C0E0F8FFFFFF7F3F0F0100000000000076
:10091E000F7FFFFFFFFFFF7F0F00000000000000B2
:10092E00FFFFFFFFFFFFFFFFE3E3E3E3E0600000F5
:10093E0000FFFFFFFFFFFFFFFF1F3F7FFFFFFFFBDC
:10094E00F1E0C08000000000000000000000000088
:10095E000000000000000000000000000000000089
:10096E000000000000000000000000000000000079
:10097E000000000000000000000000000101030361
:10098E00030303010100000000000000000000004E
:10099E000000010101010100000000000000000044
:1009AE00010101010101010101010101010000002C
:1009BE00000101010101010101000000000103031A
:1009CE000101000000000000000000000000000017
:1009DE000000000000000000000000000000000009
:0209EE00000007
:10185C000229009602390096023700960232009651
:10186C000224009602260096023B00000221000092
:07187C00023D0000013400F1
:10192B00C290D29175A0FFD292AFA0C292EF20E7E6
:01193B00F3B8
:01193C002288
:0618E400ED24B8FFD20262
:1018EA00C290C291A202B39293A20292948FA0D202
:0518FA009200C29222E1
:0618A600120AE6FFD20267
:1018AC00AE0712192BD290C291A202B39293A2024C
:0A18BC0092948EA0D29200C29222F4
:1017B700C2B70000D2B7C2027F3F1218EAC2027F47
:1017C700C01218EAC2027FB81218EAC2027F40129A
:1017D70018EAD2021F1218EAD2027FC01218EAD200
:0D17E700027FB81218EAD2027F400218EA11
:1017F400E4FDED24B8FFC2021218EAC2027F4012CF
:1018040018EA1218E4D2027F401218EAE4FCC20279
:10181400E4FF1218ACD202E4FF1218AC0CBC40EE88
:041824000DBD08CE20
:01182800229D
:0C13CE007BFF750D03750E347D187C004C
:0A13DA008B088A09890A8C0B8D0C20
:1013E400E4F50FC3E50F950CE4950B5063E50D246C
:1013F400B8FFC2021218EAE50D1218E5E50E250F32
:10140400FFE433FEC3EF9440EE64809480E50E5015
:101414001E2440250FFFC2021218EAAB08AA09A92C
:101424000A850F82758300120AE6FFC202801A251C
:101434000FFFD2021218EAAB08AA09A90A850F8283
:10144400758300120AE6FFD2021218AC050F8093CE
:011454002275
:061455008B088A09890AD8
:10145B00E4F50BE50B24B8FFC2021218EAC2027FB7
:10146B00401218EAE4F50CAB08AA09A90A75F0803A
:10147B00E50BA4250CF582E435F0F583120AE6FFA3
:10148B00C2021218AC050CE50CC3944040D9E50B15
:10149B001218E5D2027F401218EAE4F50CE50B7541
:1014AB00F080A42440FFE435F0FEE50C2FF582E438
:1014BB003EF583AB08AA09A90A1218A6050CE50C80
:0E14CB00C3944040D8050BE50BC39408408540
:0114D90022F0
:0C177700EA25E025E02408FFE954BBFB54
:10178300AE07AC03EEC39440ED501724B8FFC2027A
:101793001218EAEE2440FFC2021218EAAF04C20292
:1017A300800E1218E5AF06D2021218EAAF04D20275
:0417B3001218AC223A
:061829008B088A09890A00
:10182F00E4FD1218E4D2027F541218EAE4FCAB086C
:10183F00AA09A90A75F02CEDA42CF582E435F0F570
:0C184F00831218A60CBC2CE60DBD08D6B8
:01185B00226A
:10191600E4FAAD027BFF7F1E1217837F47121783FF
:041926000ABA08EE03
:01192A00229A
:1012A900E4FAE4F9E4F512EA25E025E0243FF8E65A
:1012B900FE08E6FFC3740C99FDEFA805088005CE6A
:1012C900C313CE13D8F930E00375120FEA25E025D0
:1012D900E02441F8E6FE08E6A805088005CEC31318
:1012E900CE13D8F930E0034312F0E925E025E024D4
:1012F9001FFFAD02AB12121783E925E025E0242078
:10130900FFE51254BBFB121783E925E025E02421F0
:10131900FFE51254DDFB121783E925E025E02422BD
:10132900FFAB1212178309E9640A60030212AD0ABE
:08133900EA640860030212AB34
:011341002289
:100B7A00E4FB20B51EC3E52794B0E5269404500A89
:100B8A000527E52770130526800FE4F526F5277B50
:100B9A000680067526047527B020B01EC3E53A9470
:100BAA0096E5399400500A053AE53A7013053980FA
:100BBA000FE4F539F53A7B018006753900753A96E6
:100BCA0020B21EC3E52A9496E5299400500A052A04
:100BDA00E52A70130529800FE4F529F52A7B02809E
:100BEA0006752900752A9620B41EC3E52594B0E53A
:100BFA00249404500A0525E52570130524800FE482
:100C0A00F524F5257B0380067524047525B020B1EB
:100C1A003BC3E5389496E5379400500A0538E53821
:100C2A00703405378030AE21AF227C007D41120B33
:100C3A00138E378F38C3E5229402E52194005008B9
:100C4A000522E522700205217B04800AE4F521F5DC
:100C5A0022F53775389620B33BC3E5339496E532CF
:100C6A009400500A0533E533703405328030AE3BC8
:100C7A00AF3C7C007D41120B138E328F33C3E53CAF
:100C8A009402E53B94005008053CE53C7002053BA4
:100C9A007B05800AE4F53BF53CF532753396AF03E4
:010CAA002227
:0E0DCB00FDAF2B120CABAA06AB07AD2EAF2D61
:080DD9008F128D138A148B1593
:100DE100D202AD30AC2FE4F516C374039516252E4F
:100DF10025E0243FF97E00ED540FFFC37409952DC2
:100E0100FBEFA803088005C333CE33CED8F9F4FF36
:100E1100EEF457F7EF0957F7ECC4F854F0C868FC43
:100E2100EDC4540F48FD0516E516B404BCAC14AD71
:100E310015E4F5167E00ED540FFFC374099512FBFE
:100E4100EFA803088005C333CE33CED8F9FFC374AE
:100E5100039516251325E0243FF8EE56FEEF0856BC
:100E61004E6002C202ECC4F854F0C868FCEDC454F0
:100E71000F48FD0516E516B404BAAC2FAD30E4F504
:100E810016C374039516252E25E0243FF97E00ED47
:100E9100540FFFC37409952DFBEFA803088005C308
:100EA10033CE33CED8F9FFEE47F7EF0947F7ECC45D
:100EB100F854F0C868FCEDC4540F48FD0516E5165A
:050EC100B404BEA20212
:010EC6002209
:100CAB00EFB407004003020DC6900CBBF828287365
:100CBB00020CD0020CF3020D20020D4C020D660249
:100CCB000D84020DA2ED14600F14600E146012243B
:100CDB00036003020DC6800280077AF07B00020DD1
:100CEB00C67444FAFB020DC6ED146014146018149C
:100CFB00601C24036003020DC67AE87B00020DC65C
:100D0B007AC47B40020DC67A2E7B00020DC67A8810
:100D1B007BC0020DC6ED14601414601814601C2403
:100D2B00036003020DC67AE27B00020DC67A447B98
:100D3B00C0020DC67A8E7B00020DC67AC87B8080FE
:100D4B007AED14600C14600B14600A2403706C8031
:100D5B0004800280007ACC7B008060ED14600C1460
:100D6B00600B14600E24037052800280067AC67BDF
:100D7B000080487A4C7B808042ED14600C14600B31
:100D8B0014600E24037034800280067A6C7B008022
:100D9B002A7A8C7B408024ED14601014601314604D
:100DAB0016240370167A4E7B0080107A8C7B808021
:0F0DBB000A7AE47B0080047A4C7B40AF03AE02DF
:010DCA002206
:0C193D00AD2CAF2B120CAB8E2F8F302284
:0B11570012193DAB30AA2FAD2EAF2DBA
:041162008F12A9053A
:10116600E4FD7E00EB540FFFC374099512FCEFA853
:1011760004088005C333CE33CED8F9F4FFEEF4FE6F
:10118600C374039D29FC25E0243FF8EE56FEEF08C4
:1011960056FFEC25E0243FF8A60608A607EAC4F8A1
:1011A60054F0C868FAEBC4540F48FB0DBD04B3AA4B
:1011B6002FAB30E4FD7E00EB540FFFC37409952D71
:1011C600FCEFA804088005C333CE33CED8F9FFC39D
:1011D60074039D252EFC25E0243FF8EE46FEEF081D
:1011E60046FFEC25E0243FF8A60608A607EAC4F861
:0F11F60054F0C868FAEBC4540F48FB0DBD04B6A3
:0112050022C6
:10172F007E00CFCDCFCECCCE120B25AB07E5182444
:06173F0005FFF518AD19CD
:061745008F1A8D1BA903A1
:10174B00E4FAE51A2AFF75F004E9A42AF582E435D8
:10175B00F0F583E5822464F582E5833400F583E4B8
:0B176B0093FBAD1B1217830ABA04D7D2
:011776002250
:041953007D047F3E52
:05195700AB340217454E
:1014DA008F188D19AE3DAF3E7C277D10120B25ABC0
:1014EA0007AD19AF18121745AE3DAF3E7C277D10E8
:1014FA00120B257E037FE8121731AE3DAF3E7C0307
:10150A007DE8120B257F6412172FAE3DAF3E7C009B
:10151A007D64120B257F0A12172FE5182405FFF5A3
:10152A0018C007AE3DAF3E7C007D0A120B25AB0505
:07153A00D007AD19021745AF
:1010A100E4F51378147C00FD7BFF7A0979ECFE7F6F
:1010B10004120AC0E4F512E51225E0243FF8E654D3
:1010C1003FFE08E654FC64FC7003EE643F7038E5B3
:1010D1001204FF74142513F8A607053EE53E7002BD
:1010E100053DAE3DFF7C007D1E120B25ED4C700FC2
:1010F100E5346409600905347D047F0D1219570533
:1011010013E513640460090512E512C3941040A7A6
:10111100E4F51374142513F8E6602D14F512E512A5
:10112100D394004023E51225E0243DF8E6FE08E6CD
:10113100FFE51225E0243FF8A60608A607783F76CA
:1011410020087604151280D60513E513B404C47D76
:06115100017F030214DA25
:100FC000AD31AF35120CAB8F828E83E4FAE4F9C3F6
:100FD000740F9AFFE582AE83A807088005CEC3137D
:100FE000CE13D8F930E002790FC3740B9AFFE58273
:100FF000AE83A807088005CEC313CE13D8F930E01E
:10100000034301F0EA25E025E02407FFAB017D065C
:10101000121783121777EA25E025E02409FFE95427
:10102000DDFB121783EA25E025E0240AFFAB01125D
:101030001783E4F9C374079AFFE582AE83A8070813
:101040008005CEC313CE13D8F930E002790FC374F4
:10105000039AFFE582AE83A807088005CEC313CEAE
:1010600013D8F930E0034301F0EA25E025E0240736
:10107000FFAB017D07121783121777EA25E025E001
:101080002409FFE954DDFB121783EA25E025E0245B
:101090000AFFAB011217830AEA64046003020FCD52
:0110A000222D
:1018C60085352B85312C752D03E4F52EE58A75F0CB
:0E18D600078485F035E58A5403F531020FC012
:100EC700120B7AEF14605F147003020FB624FE70E2
:100ED70003020F63147003020F8B24026003020FD7
:100EE700BFE52E7003020FBFC2AFC2B6E52C640385
:100EF700700F120DCB500AE4F52C12193D7D0380BB
:100F070017E4120DCB501DE52C04120DCB5015051F
:100F17002C12193DE52C14FDAF2B120CABAA06AB16
:100F27000712115E805CE52E7003020FBFC2AFC2CD
:100F3700B6E52E04FDAB30AA2FAF2D120DD95011F7
:100F4700052EE52E14FDAB30AA2FAF2D12116280AE
:100F5700E01210A11218C6121157804EE52E6058E4
:100F6700C2AFC2B6E52D14FFAB30AA2FAD2E120DBE
:100F7700D9500F152DE52D04FFAB30AA2FAD2E123A
:100F870011628026E52E6030C2AFC2B6E52D04FFA0
:100F9700AB30AA2FAD2E120DD9500F052DE52D140C
:100FA700FFAB30AA2FAD2E121162D2AFD2B622C23A
:090FB700B6B20330B2FDD2B6223D
:10169900C202AD30AC2FE4FB7E00ED540FFFC374E2
:1016A90009952DFAEFA802088005C333CE33CED8A9
:1016B900F9FFC374039B252E25E0243FF8EE56FE5F
:1016C900EF08564E6002D202ECC4F854F0C868FC28
:0C16D900EDC4540F48FD0BBB04BEA20280
:0116E50022E2
:1015FA00E53425E0FFC374149FFFE528C39F500319
:10160A00052822E4F528E52E04FDAB30AA2FAF2DDC
:10161A00120DD9500F052EE52E14FDAB30AA2FAFAF
:10162A002D0211621210A11218C612193D12169932
:10163A00920412115AE53425E0FFC374139FF5286A
:01164A00227D
:10120600D2001217F4E4FAAF027BFFE4FD12178353
:10121600AF027D071217830ABA80EC7B7F7D047FBD
:101226003C1217837B3E7F3B1217837B1C7F3A124F
:1012360017837B087F391217837B7F7F43121783BF
:101246007B3E7F441217837B1C7F451217837B08E6
:101256007F461217837A0079341213CE121953304F
:101266000040120B7AEF24FB601914602A240270E6
:10127600EEE5346009C2B61534121953D2B620B160
:10128600DE80FBE53464096009C2B60534121953E1
:10129600D2B620B3CA80FBC200C2B630B5FDD2B604
:0212A60080BD09
:0112A8002223
:10188400D2007BFF7A0179EC121455300013120B4D
:101894007AEF24FA70F5C200C2B630B5FDD2B68034
:0118A400EA59
:0118A5002220
:1016E600E4F528753506753102F53DF53EC204C2AE
:1016F600031217F4E4F5231219167BFF7A00794CCE
:10170600E4F50D750E037D18FC1213DA7BFF7A00E3
:101716007934750D03750E031213DA7D017F0312FA
:0917260014DA7D047F0D0219574D
:0A194900758903D28CD2A9D2AF2217
:10164B00E4FFEF25E0240EF582E43400F583E49308
:10165B00FC740193FDEF25E0243FF8A60408A605D2
:10166B000FBF13DE7BFF7A00798C121829C204128C
:10167B0018C6121157E53425E0FFC374139FF528E4
:0D168B00121949200405120EC780F8C2AFE5
:01169800222F
:10154100D2007BFF7A0579EC12145530B4FD3000DE
:1015510013120B7AEF24FA70F5C200C2B630B5FD52
:10156100D2B680EA1217F4E4FAAF027BFFE4FD126F
:101571001783AF027D071217830ABA80EC7A0079CC
:101581004C1213CE7D047F341214DAD200300013D2
:10159100120B7AEF24FA70F5C200C2B630B5FDD253
:0315A100B680EA27
:0115A4002224
:1018FF001217B71217F41218841212061216E612E4
:07190F00164B12154180EF99
:03000B000215A536
:1015A500C0E0C0F0C083C082C0D075D000C000C00C
:1015B50001C002C003C004C005C006C007758C0089
:1015C500758A00E523C3940A50040523800C75230E
:1015D500002003061215FA1212A9D007D006D0056D
:1015E500D004D003D002D001D000D0D0D082D08397
:0515F500D0F0D0E0324F
:10134E000218FFE493A3F8E493A34003F68001F29E
:10135E0008DFF48029E493A3F85407240CC8C333A0
:10136E00C4540F4420C8834004F456800146F6DF6F
:10137E00E4800B010204081020408090185CE47E8B
:10138E00019360BCA3FF543F30E509541FFEE49364
:10139E00A360010ECF54C025E060A840B8E493A32B
:1013AE00FAE493A3F8E493A3C8C582C8CAC583CA56
:1013BE00F0A3C8C582C8CAC583CADFE9DEE780BE0E
:011883000064
:1009F000E709F608DFFA8046E709F208DFFA803EE9
:100A000088828C83E709F0A3DFFA8032E309F608D5
:100A1000DFFA8078E309F208DFFA807088828C833D
:100A2000E309F0A3DFFA806489828A83E0A3F608F1
:100A3000DFFA805889828A83E0A3F208DFFA804CCB
:100A400080D280FA80C680D4806980F280338010A2
:100A500080A680EA809A80A880DA80E280CA80330B
:100A600089828A83ECFAE493A3C8C582C8CCC58383
:100A7000CCF0A3C8C582C8CCC583CCDFE9DEE78053
:100A80000D89828A83E493A3F608DFF9ECFAA9F0D2
:100A9000EDFB2289828A83ECFAE0A3C8C582C8CC28
:100AA000C583CCF0A3C8C582C8CCC583CCDFEADE41
:100AB000E880DB89828A83E493A3F208DFF980CCA3
:100AC00088F0EF60010E4E60C388F0ED2402B4049C
:100AD0000050B9F582EB2402B4040050AF23234543
:060AE0008223900A40731E
:100AE600BB010CE58229F582E5833AF583E02250C5
:100AF60006E92582F8E622BBFE06E92582F8E2220F
:0D0B0600E58229F582E5833AF583E4932228
:100B1300EF8DF0A4A8F0CF8CF0A428CE8DF0A42EF6
:020B2300FE22B0
:100B2500BC000BBE0029EF8DF084FFADF022E4CCB4
:100B3500F875F008EF2FFFEE33FEEC33FCEE9DEC7D
:100B4500984005FCEE9DFE0FD5F0E9E4CEFD22EDC3
:100B5500F8F5F0EE8420D21CFEADF075F008EF2F0D
:100B6500FFED33FD4007985006D5F0F222C398FDFE
:050B75000FD5F0EA229B
:00000001FF
