:030000000202E316
:0C02E300787FE4F6D8FD75812002032A24
:0A052700011312011212C181C180FC
:0D054000007F087E017DF3DDFEDEFCDFFAAA
:01054D00228B
:10049A00300118E511D395155004D2908002C2900C
:0E04AA00E511D394144006E4F51122C290220D
:1004B800300118E516D395145004D2958002C295E0
:0E04C800E516D394144006E4F51622C29522E0
:05001E00C291D2922204
:05002600D291C29222FC
:0505AE00D291D292225F
:0505B300D294C2932266
:0505B800C294D2932261
:0505BD00D294D293224C
:0C05680085131585121412001E0205B345
:07059A0085131585121422E0
:0905800075140A1205B30205AE60
:0905890075150A1205BD02001EE1
:0605A8001205AE0205BDC4
:0C0574008513158512141200260205B331
:0405310002170000AD
:1004D60020B70630B60312058030B70620B60312E1
:0C04E600058920B70620B6031205682225
:1004F200758900438921759850758780758DFA75C5
:0B0502008BFAC2ABD2ACD2AFD28E227B
:0D054E00758CFC758A18D2A9D2AFD28C2210
:080003008F993099FDC299228A
:0D055B0085991B3098FDC298AF1B0200036C
:0405350002190000A7
:0505C2000513051222E3
:0505C7001513151222BE
:10046F001204F212054E12000E30951075CDFC7568
:10047F00CC66D2CA2095FDC2CA12036FE50AB40139
:0B048F000512056880E31205A880DE5E
:03002300020434A0
:10043400C0E0C0F0C083C082C0D075D000C000C08E
:1004440001C002C003C004C005C006C00712055B9A
:10045400D007D006D005D004D003D002D001D000FC
:0B046400D0D0D082D083D0F0D0E032A6
:03000B000203D21B
:1003D200C0E0C0F0C083C082C0D075D000C000C0F1
:1003E20001C002C003C004C005C006C007758CFC72
:1003F200758A180511051612049A1204B8051AE531
:100402001A70020519C39464E5199400400975191C
:1004120000751A0012050DD007D006D005D004D001
:1004220003D002D001D000D0D0D082D083D0F0D07F
:02043200E032B6
:10000E00E4F5C8F5CCF5CDD2ADD2AFC2BDC2CA2291
:03002B000205A12A
:0705A100750B00750C01321F
:0805920012054E1204D680FB95
:06053900040D00000000AB
:10050D00D294000000000000000000000000000078
:0A051D0000000000000000C294225C
:10036F00AFCDEFFEADCC7C00E42DF509EC3EF508EA
:10037F00E4F5CDF5CCAC08AD091202527B297A5CBD
:10038F0079EF783F12002EE4FBFA79C87842120118
:10039F00378F108E0F8D0E8C0DE50C6401450B7091
:1003AF001EFFFE7DF07C41AB10AA0FA90EA80D1207
:1003BF0001D4600B4009E4F50BF50C750A0122E43A
:0303CF00F50A220A
:10002E00EC4D6011E8497017ED33EC3304600DE4CC
:10003E00FCFFFEFD22E933E8330470F80202C01221
:10004E00028B58046009E4CC248150062850090222
:10005E0002CA2840030202C7C0E0EB4A7044B980CE
:10006E0006D0E0FB0202B6EF4E701CBD8008EBFF1F
:10007E00EAFEE9FD80EBE98DF0A4FEE5F002011742
:10008E00E9CDF9EAFEEBFFEF89F0A4FCE5F0CE89AD
:10009E00F0A42EFFE435F0CD89F0A42DFEE435F06A
:1000AE008067EF4E7005BD80D780C3EF8BF0A4AC98
:1000BE00F0EE8BF0A42CFCE435F0F8EF8AF0A42CD3
:1000CE00E5F038FCE433CB8DF0A42CFCE5F03BF8E6
:1000DE00EE8AF0A42CFCE5F038F8E433CF89F0A4D6
:1000EE002CFCE5F038CF3400CE89F0A42FFFE5F0DC
:1000FE003EFEE433C98DF0A42EFEE5F039CD8AF034
:10010E00A42FFFE5F03EFEE43DFD33D0E0FB5007AB
:10011E000BBB000F0202CAEC2CFCEF33FFEE33FEDA
:06012E00ED33FD0202A208
:100134000202CAEC5D046005E8590470030202C0BF
:1001440012028B580460F6EC4860F2EC7004FDFE79
:10015400FF22C860DB2481C85009C398600250069E
:100164000202C79850CAF582E9294B4A7005AB824E
:100174000202B675F0007C1A7880C3EF9BEE9AED0C
:1001840099400DC3EF9BFFEE9AFEED99FDE842F016
:10019400DC23ACF0D0E0FFD0E0FED0E0FDAB822069
:1001A400E7101BEB60BAEC2CFCEF33FFEE33FEEDF3
:1001B40033FD0202A2E803F830E705C0F075F00051
:1001C400EF2FFFEE33FEED33FD40B830E7C280AAD7
:1001D40074F8CC6480CCC86480C8F58204604FC3D2
:1001E400EB9FF5F0EA9E42F0E99D42F0E89C45F071
:1001F400603C501DE5825FFFE582D313CB5BCBF4FB
:100204002B5582FB50280ABA002409B90020088023
:100214001DE5825BFBE582D313CF5FCFF4C3132FBD
:100224005582FF50090EBE00050DBD00010CC3EB45
:100234009FF5F0EA9E42F0E99D42F0E89C45F060AB
:0902440007CC4820E701B3EC22CD
:10024D0075F020800E75F010800575F0087D007E2C
:10025D00007F003392D530D5031202D5EC33401018
:10026D00EF33FFEE33FEED33FDEC33FCD5F0ED2235
:0E027D00E5F0247EA2D513CC92E7CDCEFF2271
:10028B00E9D2E7C933E833F892D5EDD2E7CD33ECB9
:07029B0033FC5002B2D52232
:1002A200EC30E7100FBF000C0EBE00080DBD0004BD
:1002B2000BEB6014A2D5EB13FCED92E7FD2274FF69
:1002C200FCFDFEFF22E480F8A2D574FF13FC7D80C2
:0302D200E480EFD6
:1002EF0002046FE493A3F8E493A34003F68001F2B2
:1002FF0008DFF48029E493A3F85407240CC8C33310
:10030F00C4540F4420C8834004F456800146F6DFDE
:10031F00E4800B0102040810204080900527E47E42
:10032F00019360BCA3FF543F30E509541FFEE493D3
:10033F00A360010ECF54C025E060A840B8E493A39A
:10034F00FAE493A3F8E493A3C8C582C8CAC583CAC5
:10035F00F0A3C8C582C8CAC583CADFE9DEE780BE7D
:01053F0000BB
:0E02D500C3E49FFFE49EFEE49DFDE49CFC223A
:00000001FF
