:0300000002011BDF
:0C011B00787FE4F6D8FD75811D020162BA
:10000E00D4D4BED49FA9D4D4BED48E9FD4D46A7E69
:10001E009FA9BE77777E9F8E9F0009030C0C0C184C
:10002E0009030C0C0C1809030C0C0C0C0C09030C1A
:10003E000C0C1800262020202020261020102080B6
:10004E0026203020302039103010308026202020FD
:10005E0020201C2020802B20262020202B10261034
:10006E002B8026203020302039102610266040109C
:10007E0039102620302030203910261026802620D8
:10008E002B102B102B203010391026102B102B205C
:10009E002B404020201020102B10263030801820AE
:1000AE00182026202020204026202B2030203020F3
:1000BE001C20202020801C201C201C203020306082
:1000CE003910301020202B1026102B102610261041
:1000DE002B102B8018201820262020202060261080
:1000EE002B20302030201C20202020802620301075
:1000FE0030103020392026102B102B202B40401092
:0D010E004010201020102B102630308000F3
:1003CA001209003F065B4F666D7D077F6F777C39A8
:0403DA005E797100D7
:1003B400EF1FAA0670011E4A600BE4FDEDC394789A
:0503C40050EE0D80F772
:0103C9002211
:10023200E4F51BF51C7428251CF5827400351BF5AA
:1002420083E4937010740E251CF5827400351BF53F
:1002520083E493605DE4FDFC7428251CF582740040
:10026200351BF583E49375F014A4FFC3ED9FEC9561
:10027200F0502EB2A5E4FFFE740E251CF582740028
:10028200351BF583E49375F00384FBC3EF9BEE9477
:100292000050070FBF00010E80DE0DBD00010C8073
:1002A200B77F0A7E001203B4051CE51C7087051B8C
:0202B200808347
:0102B4002227
:0A03EC001202327FF47E010203B416
:0D03DF0075890175A882758CD8758AEF228A
:03000B000203F6F7
:0903F600758CD8758AEF050832F8
:10039400E4FDFCC3ED9FEC9E5015E4FBFA0BBB009F
:0F03A400010AEB64034A70F50DBD00010C80E403
:0103B3002227
:1002B500E4F508EF75F0D9A485F01CF51D051DE5DD
:1002C5001DAE1C7002051C142442F58274003EF517
:1002D50083E493F9B9FF0BC28C7F647E001203940B
:1002E50080DBE9700122051DE51DAE1C7002051CB1
:1002F500142442F58274003EF583E493F51BD28CF9
:10030500B2A5E9FF7E00120394E51BB508F2E4F5FA
:030315000880AAB3
:10031800AB07AA06C374089BFBE49AFA7C007D022B
:10032800AF03FE1201A7EC4D24FF92A27C007D02D0
:10033800AF03AE021201A7AA06AB077C007D02122A
:1003480001A7EC4D24FF92A37C007D02AF03AE020F
:100358001201A77C007D021201A7EC4D24FF92A494
:010368002272
:100369001203DF7F017E0012031885098020B1097D
:10037900850B801203EC85098020B0F1850C80D2B1
:0B038900AF1202B5C2AF85098080E210
:10012700020369E493A3F8E493A34003F68001F282
:1001370008DFF48029E493A3F85407240CC8C333D9
:10014700C4540F4420C8834004F456800146F6DFA8
:10015700E4800B01020408102040809003CAE47E6B
:10016700019360BCA3FF543F30E509541FFEE4939D
:10017700A360010ECF54C025E060A840B8E493A364
:10018700FAE493A3F8E493A3C8C582C8CAC583CA8F
:10019700F0A3C8C582C8CAC583CADFE9DEE780BE47
:0103DE00001E
:1001A700C2D5EC30E709B2D5E4C39DFDE49CFCEE73
:1001B70030E715B2D5E4C39FFFE49EFE1201DDC30D
:1001C700E49DFDE49CFC80031201DD30D507C3E408
:0601D7009FFFE49EFE22E2
:1001DD00BC000BBE0029EF8DF084FFADF022E4CC06
:1001ED00F875F008EF2FFFEE33FEEC33FCEE9DECCF
:1001FD00984005FCEE9DFE0FD5F0E9E4CEFD22ED15
:10020D00F8F5F0EE8420D21CFEADF075F008EF2F5E
:10021D00FFED33FD4007985006D5F0F222C398FD4F
:05022D000FD5F0EA22EC
:00000001FF
