:02000300036197
:02000500034AAC
:020007000327CD
:0300000002037286
:0C037200787FE4F6D8FD7581200201437D
:100361007F011201807F02120180E4FF12020980E5
:01037100FE8D
:10034A00B2907F021202927DFA7F801202C87DFA71
:07035A007F801202C880E958
:100327007D0A7F811202C88F0E7F0A1202B9E50E7D
:1003370064047004C2918002D2917D647F801202AE
:03034700C880DD8E
:03000B00020013DD
:10000E00C2AF80FE3212001285D00B75D008AAE066
:10001E00C28CE58A241FF58AE58C34FCF58CD28CD3
:10002E00EC2416F8E6BC020274FFC39581B41400EA
:10003E0040CE7903780F16E608700BC2AFE630E1BA
:10004E00034418F6D2AF08D9EDEA8BD03000012266
:10005E00D50DFCC0E0C0D0C0F0C083C082C000C0CF
:10006E0001C002C003C004C005C006C007E50C23D2
:10007E002410F87440C2AF46F6D2AFD200E50CFFA2
:10008E00232410F80F0808BF03047F007810E63011
:10009E00E4F200E50CC39F5020050C7415250CF8F6
:1000AE00E6FDA68108E6AE0CBE020274FFCDF8E8AE
:1000BE006D60E008E6C0E080F6E50CD39F4027E5D2
:1000CE000C2416F8E6AE0CBE020274FFFD18E6CD47
:1000DE00F8E5816D6006D0E0F61880F5E50C241584
:1000EE00C8F6150C80D3750D05E50C232410F87F8A
:1000FE0004C2AFE610E61E30E00310E20C7F0030C3
:05010E00E10730E304ED
:100113007F0854F4547CC6D2AF54804207C20022F5
:10012300F6D2AFD007D006D005D004D003D002D08A
:1001330001D000D082D083D0F0D0D0D0E0C2002252
:100143007815A68174026006FF0876FFDFFB7F0344
:10015300E4780FF608F608DFFA781076309000039B
:10016300740193C0E0E493C0E0750D054389017504
:0D0173008A18758CFCD28CD2AFD2A9220262
:10018000EFD3940240037FFF2274102F2FF8E62054
:10019000E5F4C2AFE64430F6D2AFAE0CEEC39F50EA
:1001A000210E74152EF8E6F908E618BE020274FF57
:1001B000FDED69600909E71919F7090980F31616B9
:1001C00080DAEED39F400405810581EED39F402263
:1001D00074152EF808E6F9EEB50C02A9811806068A
:1001E000E6FDED6960091919E70909F71980F31EA1
:1001F00080D9EF2415F8E604F8EF2F04900003935C
:09020000F608EF2F93F67F0022AF
:10020900EFD3940240037FFF22EF232410F8E63056
:10021900E5F4C2AFE6548CF6D2AFE50CB5070A7423
:10022900152FF8E6F581020089502E74162FF8E68D
:10023900BF020274FFFD18E6F974152FF8FBE6FCFE
:10024900E96C6008A805E7F61D1980F4A803A6055E
:100259001FE50CB507E37F002274162FF8E6FD1899
:1002690086010F74152FF8A601088604E50CB50759
:1002790002AC81ED6C60080D09A805E6F780F4E58C
:090289000CB507DE89817F00221B
:10029200EFD3940240037FFF22EF232410F8C2AF72
:1002A200E630E50530E002D2E4D2E2C6D2AF7F000A
:0702B20030E2010F02005DC4
:0F02B900E50C23240FF8C3C2AFE69FF6D2AF22A5
:1002C8008FF0E4FFFEE50C23240FF8C2A930F70DE8
:1002D8007F08E6600B2DF660325030800730F1065B
:1002E800EDF660277E020830F010C2AFE610E72571
:1002F8000E30E20CD2AF7F048014C2AFE610E715CF
:1003080054EC4EF6D2AFD2A90200897F0808EF4418
:0F03180083F4C2AF56C6D2AFD2A954804FFF2292
:00000001FF
