:030000000203BE3A
:0C03BE00787FE4F6D8FD75813902040553
:10061300020C0000020A0000020E00010215000095
:1006230002190000021700010208FFFF0510303015
:0306330030303034
:10052F001206961206CDE50D6401450C7016E50B0B
:10053F00B4FF0AE50AB4FF0512058C8007AF09AEB8
:10054F000812025AE50D450C7008FB7A007910125B
:10055F0004C9E50F6401450E70CCF517751801FB42
:10056F0012064D12064B12064B12064B75170075ED
:0D057F001801E4F50EF50FF50AF50B80A943
:08064B007B007A0079107D307C
:10065300C3E5189405E517648094805012851882C9
:10066300851783ED12019B0518E518700205172203
:03000B00020026CA
:10002600C0E0C0F0C083C082C0D075D000C000C0A0
:1000360001C002C003C004C005C006C00730B1033A
:100046000200D6E51664014515700CF515F5163057
:10005600B10302013A80F8E50BB4FF19E50AB4FFD3
:1000660014750C00750D00750E00750F0130B10387
:1000760002013A80F8750C00750D01750A00750BC2
:1000860001AF111203387C007D0A1201BDC006C003
:1000960007AF12120338D0E02FFFD0E03EFE7C00FF
:1000A6007D3C1201BDC006C007AF131203387C00A9
:1000B6007D0A1201BDD0E02FFDD0E03EFCC004C099
:1000C60005AF14120338D0E02FF509D0E03EF5084D
:1000D60020B018E50D450C7005F50E750F01E50B02
:1000E6006401450A7005F515751601051AE51A70BD
:1000F600020519640E4519703BE50B6401450A704B
:100106001BD3E5099400E50864809480400EE5164B
:1001160045157008E509150970021508E509450831
:10012600700C750AFF750BFF7508FF7509FF7519C9
:1001360000751A00D007D006D005D004D003D0022F
:0F014600D001D000D0D0D082D083D0F0D0E03222
:10000E00AD078D997B007A0079101206533099FD59
:03001E00C2992262
:10069600D29CD2AFD2AC53877F75985053890F4303
:0D06A6008920758BFD758DFDC2ABD28E22B3
:1006CD00438901E4F58A758CDCD28CC28DD2A9D216
:0206DD00AF224A
:100673008B378A388939AB37AA38A939120155FF24
:10068300601012000E74012539F539E43538F53858
:0306930080E422DE
:030023000205D102
:1005D100C0E0C0F0C083C082C0D075D000C000C0F0
:0D05E10001C002C003C004C005C006C00771
:0A05EE00309807AF9912000EC29872
:1005F800D007D006D005D004D003D002D001D00057
:0B060800D0D0D082D083D0F0D0E03200
:10063600121B3F065B4F666D7D077F6F777C395EC9
:040646007971004086
:1006B300EF1FAA0670011E4A600FE4FDEDC394010B
:0906C3007480948050EA0D80F36C
:0106CC00220B
:10044A007C00E4FFFE1204617D087F017E00120435
:07045A00617D087F027E00B6
:10046100EE7053EFB40800504D900471F8282873D2
:100471000204B10204AD0204A50204A1020499021E
:10048100049502048D020489C2A28002D2A2C2A3F1
:10049100C2A48022C2A28002D2A2D2A3C2A4801688
:1004A100C2A28002D2A2C2A3D2A4800AC2A28002A6
:1004B100D2A2D2A3D2A4741B2DF8E6F5807F0A7EC6
:0804C100001206B3E4F58022ED
:0A032E00AB2DAA2EA92F12016EFFBD
:10033800EF24D0B40A00507990034E75F003A4C599
:100348008325F0C5837302036C02037302037B02E7
:10035800038302038B02039302039B0203A302039A
:10036800AB0203B3E4F535F53680467535007536CE
:1003780001803E7535007536028036753500753654
:1003880003802E7535007536048026753500753660
:1003980005801E753500753606801675350075366C
:1003A80007800E7535007536088006753500753678
:0503B80009AE35AF366F
:0103BD00221D
:0604C9008B2D8A2E892F05
:1004CF007D0A12044A90000112032EAD07AC067F7D
:1004DF00037E0012046190000212032EAC06AD07DA
:1004EF007F047E001204617D117C007F057E001267
:1004FF000461AB2DAA2EA92F900003120334AC0672
:10050F00AD077F067E00120461AB2DAA2EA92F9096
:10051F000004120334AC06AD077F077E00020461AE
:04025A00AB07AA063E
:10025E007C007D3C1201CF7E007F0ACFCDCFCECC6D
:10026E00CE1201CF8C2D8D2E7C007D3CAF03AE02C5
:10027E001201CFC3ED952EFFEC952DFE7C007D0A6D
:10028E001201CF8E2F8F307C007D3CAF03AE021259
:10029E0001CF7C007D0A1201CF8C318D32AE02AFC0
:1002AE00037C027D581201CF8E338F34C3E5336445
:1002BE008094805005E4F533F534C3E531648094C1
:1002CE00805005E4F531F532C3E52F6480948050FB
:1002DE0005E4F52FF530C3E52D648094805005E4D8
:1002EE00F52DF52E7D0B12044AAD34AC337F037E13
:1002FE0000120461AD32AC317F047E001204617DC8
:10030E00117C007F057E00120461AD30AC2F7F069C
:10031E007E00120461AD2EAC2D7F077E00020461BB
:10058C007D067C00E4FFFE1204617D067F017E0087
:10059C001204617D0612045D7D067F037E00120449
:1005AC00617D067F047E001204617D067F057E005E
:1005BC001204617D067F067E001204617D067F07B2
:0505CC007E0002046145
:1003CA0002052FE493A3F8E493A34003F68001F215
:1003DA0008DFF48029E493A3F85407240CC8C33334
:1003EA00C4540F4420C8834004F456800146F6DF03
:1003FA00E4800B0102040810204080900613E47E7A
:10040A00019360BCA3FF543F30E509541FFEE493F7
:10041A00A360010ECF54C025E060A840B8E493A3BE
:10042A00FAE493A3F8E493A3C8C582C8CAC583CAE9
:10043A00F0A3C8C582C8CAC583CADFE9DEE780BEA1
:01064A0000AF
:10015500BB010689828A83E0225002E722BBFE02A8
:09016500E32289828A83E49322DB
:10016E00BB010CE58229F582E5833AF583E0225046
:10017E0006E92582F8E622BBFE06E92582F8E22290
:0D018E00E58229F582E5833AF583E49322AA
:10019B00F8BB010DE58229F582E5833AF583E8F09A
:1001AB00225006E92582C8F622BBFE05E92582C846
:0201BB00F2222E
:1001BD00EF8DF0A4A8F0CF8CF0A428CE8DF0A42E56
:0201CD00FE2210
:1001CF00C2D5EC30E709B2D5E4C39DFDE49CFCEE4B
:1001DF0030E715B2D5E4C39FFFE49EFE120205C3BC
:1001EF00E49DFDE49CFC800312020530D507C3E4B7
:0601FF009FFFE49EFE22BA
:10020500BC000BBE0029EF8DF084FFADF022E4CCDD
:10021500F875F008EF2FFFEE33FEEC33FCEE9DECA6
:10022500984005FCEE9DFE0FD5F0E9E4CEFD22EDEC
:10023500F8F5F0EE8420D21CFEADF075F008EF2F36
:10024500FFED33FD4007985006D5F0F222C398FD27
:050255000FD5F0EA22C4
:00000001FF
