:020003001CB22D
:02000500000EEB
:020007001D8A50
:0200090016904F
:101CB200C2AFD2A8D288121CD31217FAD2AF159093
:101CC20015907F011213487F03121348120E73807E
:011CD200FB16
:10000E00E52464034523700512002080F31217497E
:02001E0080EE72
:101D8A00E52464034523700512002080F37D327F29
:061D9A00021213D180EAE1
:101690007DFA7F021213D1121B9520A4557D0A7F7B
:1016A000021213D120A44BE524640145237007F5F1
:1016B000237524028039E5246404452370028008E0
:1016C000E524640645237007F5237524058020E58D
:1016D00024640345237018051CE51C7002051BD308
:1016E0009403E51B648094804005E4F51BF51C30F1
:1016F000A4FD20A5297D0A7F021213D120A51FE594
:1017000024640345237007F523752401800DE52427
:10171000640145237005F52375240530A5FD20A639
:101720000D7D0A7F021213D120A60330A6FD30A73B
:10173000030216907D0A7F021213D130A70302160E
:091740009030A70302169080F816
:081AF800026700000269000012
:101CD30043878075985053890F438920758BF3751B
:101CE3008DF3C2ABD28ED29CD2ACD2AFC299C29882
:011CF30022CE
:0C1DA000C2AC8F993099FDC299D2AC22E0
:101C43008B1D8A1E891FAB1DAA1EA91F120D606062
:101C530013051FE51F7002051E14F9120D60FF1214
:051C63001DA080E2223B
:03002300021A2C92
:101A2C00C0E0C0D075D000C000309861859916E533
:101A3C006845676018C3E5719404E5709400500D17
:101A4C000571E57170020570246BF8A616E5684502
:101A5C00676020E571640445707018F567F568E5FA
:101A6C006F64056008756900756A01800675690008
:101A7C00756A00E516645A7010F567756801F570A3
:101A8C00F571746B2571F8A616C2988002C299D0B4
:061A9C0000D0D0D0E032C2
:100026002020004B4D004D696C2062696C6C696E36
:10003600672073797374656D002D2D2D2D2D2D2D53
:100046002D2D2D2D2D2D2D2D2D2D2D2D2D0053709E
:100056006565643A004D2F730044697374616E637D
:10006600653A004D0053746F705F005075736820D9
:100076004B322053746172740050757368204B3391
:1000860020436C6561720020202020202020202043
:10009600202020200052756E6E696E67004B32205C
:1000A60053572053706565640020202020202020AF
:1000B6002020202020005F0050757368204B3320DD
:1000C60053746F700044697374616E6365005365A1
:1000D60074207A65726F210050757368204B322048
:1000E600636F6E74696E75650020202020202020C5
:1000F6002020202020202020200057656C636F6D73
:100106006520546F2055736500475545542D2D2D98
:100116002D4C51530045564F4C5554494F4E2D5476
:1001260045414D0050757368204B3220546F204373
:100136006F6E74696E7565002020202020202020B7
:1001460020202020202020202020200000007C408D
:10015600404040FF40404040FC000000007C4040E2
:100166004040407F4040404040FC0000000000000E
:1001760000000000002F0000000007000700001428
:100186007F147F1400242A7F2A1200626408132336
:1001960000364955225000000503000000001C22CD
:1001A6004100000041221C000014083E081400080B
:1001B600083E0808000000A06000000808080808BB
:1001C600000060600000002010080402003E514953
:1001D600453E0000427F40000042615149460021F1
:1001E60041454B31001814127F100027454545390B
:1001F600003C4A4949300001710905030036494966
:10020600493600064949291E00003636000000001E
:100216005636000000081422410000141414141469
:100226000000412214080002015109060032495912
:10023600513E007C1211127C007F49494936003E2E
:1002460041414122007F4141221C007F49494941E9
:10025600007F09090901003E4149497A007F0808E3
:10026600087F0000417F4100002040413F01007FA0
:1002760008142241007F40404040007F020C027F6C
:10028600007F0408107F003E4141413E007F09097E
:100296000906003E4151215E007F091929460046A4
:1002A600494949310001017F0101003F4040403F7B
:1002B600001F2040201F003F4038403F00631408C5
:1002C60014630007087008070061514945430000A0
:1002D6007F41410000552A552A55000041417F00C3
:1002E60000040201020400404040404000000102B8
:1002F6000400002054545478007F484444380038A1
:100306004444442000384444487F00385454541828
:1003160000087E0901020018A4A4A47C007F08043A
:1003260004780000447D4000004080847D00007F0A
:10033600102844000000417F4000007C0418047827
:10034600007C0804047800384444443800FC242423
:1003560024180018242418FC007C0804040800480B
:100366005454542000043F444020003C4040207C2C
:10037600001C2040201C003C4030403C004428101B
:100386002844001CA0A0A07C004464544C441414CF
:100396001414141400000000000000000000000007
:1003A60000000000000000F800000000000000331C
:1003B6003000000000100C06100C060000000000C3
:1003C6000000000040C07840C0784000043F0404AC
:1003D6003F040400007088FC08300000001820FF6D
:1003E600211E0000F008F000E018000000211C03A8
:1003F6001E211E0000F00888700000001E21232424
:100406001927211010160E00000000000000000041
:1004160000000000000000E01804020000000007D1
:100426001820400000020418E000000000402018D8
:1004360007000000404080F0804040000202010FAB
:1004460001020200000000F0000000000101011F8F
:1004560001010100000000000000000080B07000F3
:100466000000000000000000000000000001010183
:100476000101010100000000000000000030300012
:1004860000000000000000008060180400601806EC
:100496000100000000E010080810E000000F102026
:1004A60020100F00001010F8000000000020203F70
:1004B60020200000007008080888700000302824FA
:1004C600222130000030088888483000001820209B
:1004D60020110E000000C02010F8000000070424C0
:1004E600243F240000F80888880808000019212005
:1004F60020110E0000E0108888180000000F11205F
:1005060020110E0000380808C83808000000003F17
:10051600000000000070880808887000001C222176
:1005260021221C0000E010080810E0000000312223
:1005360022110F00000000C0C000000000000030C3
:100546003000000000000080000000000000806015
:100556000000000000008040201008000001020496
:10056600081020004040404040404000040404047D
:100576000404040000081020408000000020100839
:1005860004020100007048080808F000000000306E
:1005960036010000C030C828E810E00007182724FC
:1005A60023140B000000C038E0000000203C2302AA
:1005B6000227382008F8888888700000203F20200D
:1005C60020110E00C030080808083800071820203F
:1005D6002010080008F808080810E000203F202036
:1005E60020100F0008F88888E8081000203F202017
:1005F6002320180008F88888E8081000203F20000B
:1006060003000000C0300808083800000718202042
:10061600221E020008F808000008F808203F210101
:1006260001213F20000808F8080800000020203FAC
:100636002020000000000808F8080800C08080801C
:100646007F00000008F888C028180800203F200115
:100656002638200008F8080000000000203F20206F
:100666002020300008F8F800F8F80800203F003F86
:10067600003F200008F830C00008F808203F20009E
:1006860007183F00E01008080810E0000F102020AF
:1006960020100F0008F808080808F000203F210184
:1006A60001010000E01008080810E0000F182424DB
:1006B60038504F0008F8888888887000203F20004E
:1006C600030C302000708808080838000038202104
:1006D60021221C00180808F8080818000000203F0E
:1006E6002000000008F808000008F808001F202075
:1006F60020201F000878880000C838080000073846
:100706000E010000F80800F80008F800033C070096
:10071600073C0300081868808068180820302C03FE
:10072600032C30200838C800C83808000000203FD5
:100736002000000010080808C838080020382621C4
:1007460020201800000000FE020202000000007FC8
:1007560040404000000C30C00000000000000001D6
:100766000638C00000020202FE00000000404040C1
:100776007F000000000004020202040000000000E6
:100786000000000000000000000000008080808063
:10079600808080800002020400000000000000004B
:1007A60000000000000080808080000000192422E4
:1007B60022223F2008F8008080000000003F112020
:1007C60020110E000000008080800000000E112025
:1007D60020201100000000808088F800000E112003
:1007E60020103F200000808080800000001F222211
:1007F60022221300008080F0888888180020203F7D
:10080600202000000000808080808000006B94948F
:100816009493600008F8008080800000203F21004B
:1008260000203F2000809898000000000020203F14
:1008360020200000000000809898000000C0808002
:10084600807F000008F8000080808000203F24029E
:100856002D302000000808F8000000000020203F8E
:10086600202000008080808080808000203F200043
:100876003F20003F8080008080800000203F2100D4
:1008860000203F200000808080800000001F202084
:1008960020201F00808000808000000080FFA120B3
:1008A60020110E000000008080808000000E1120C4
:1008B60020A0FF80808080008080800020203F2153
:1008C6002000010000008080808080000033242406
:1008D60024241900008080E0808000000000001FB2
:1008E600202000008080000000808000001F202063
:1008F60020103F20808080000080808000010E3024
:100906000806010080800080008080800F300C0384
:100916000C300F0000808000808080000020312E87
:100926000E312000808080000080808080818E7063
:100936001806010000808080808080000021302C15
:100946002221300000000000807C0202000000002E
:10095600003F404000000000FF00000000000000D3
:10096600FF0000000002027C800000000040403FC3
:10097600000000000006010102020404000000005D
:04098600000000006D
:101B00000235000002210000023700000223000617
:101B1000022500000233000004277F3F1F0F02311F
:021B20000000C3
:101D1400D3EF9400EE940040147D6E7C00ED1D70B2
:0D1D2400011CED4C70F7EF1F70E61E80E310
:011D3100228F
:091DB600D280D281C281C28022D8
:091DBF00C280C281D280D28122CF
:071B3700AD07121DB67F7817
:101B3E00E4FEEEC39408748094805015EF30E704F1
:101B4E00D2818002C281D280C280EF25E0FF0E805A
:071B5E00E1D281D280C280B8
:011B6500225D
:0D1D500074522BF58274013AF583E493FF81
:101D5D00121B377F40121B3EAF05121B3E021DBFEB
:0D1D6D0024B0FF121D7A7F01121D7A7F1035
:101D7A00121B37E4FF121B3EAF05121B3E021DBFAA
:101D3200AC07ED24B0FF121D7AEC54F0C4540F44EA
:0E1D420010FF121D7AEC540F4401FF021D7AAF
:021BF100AC073F
:101BF300E4FBEBC3940874809480501BEB121D6DBF
:101C0300E4FAEAC39480748094805008AF04121DF0
:071C13005D0A80EE0B80DB8F
:011C1A0022A7
:101C1B00E4FCECC3940874809480501BEC121D6D93
:101C2B00E4FBEBC39480748094805008E4FF121D96
:071C3B005D0B80EE0C80DB65
:011C4200227F
:1017FA007FF47E01121D147FAE121D7AE4FF121DC2
:10180A00757F40121D7A7F81121D7A7FCF121D7A51
:10181A007FA0121D7A7FC0121D7A7FA6121D7A7FC1
:10182A00A8121D7A7F3F121D7A7FD3121D7AE4FF18
:10183A00121D7A7FD5121D7A7F80121D7A7FD912E6
:10184A001D7A7FF1121D7A7FDA121D7A7F12121D1C
:10185A007A7FDB121D7A7F40121D7A7F20121D7A51
:10186A007F02121D7A7F8D121D7A7F14121D7A7FD4
:10187A00A4121D7A7FA6121D7A7FAF121D7AE4FF89
:10188A00121BF1E4FDFF121D327FE87E03021D14D4
:0A1926007BFF7A00798D7C007F289A
:0C1930008F3F8C408D418B428A438944DC
:10193C00E4F545FCF546AB42AA43A94485468275BD
:10194C008300120D79605524E0F545D3E53F947E74
:10195C0074809480400BE4F53F0541E5417002052D
:10196C0040AD41AF3F121D32E4FCECC394067480D1
:10197C009480501E75F006E545A42472F582E5F0BE
:10198C003401F583E5822CF582E43583121D580C65
:0C199C0080D87406253FF53F0546809A70
:0119A800221C
:0C15D4007A0079DE7BFF7D057C00E4FFDF
:0C15E0008F3F8C408D418B428A43894430
:1015EC00E4F545FCF546AB42AA43A9448546827511
:1015FC008300120D79700302168F24E0F545D3E5B4
:10160C003F947874809480400BE4F53F0541E541AC
:10161C0070020540AD41AF3F121D32E4FCECC394A7
:10162C000874809480501E75F010E545A42CF5824A
:10163C00E435F0F583E582249AF582E583340312D0
:10164C001D580C80D8E54104FDAF3F121D32E4FC5F
:10165C00ECC3940874809480501E75F010E545A47A
:10166C002CF582E435F0F583E58224A2F582E5833E
:10167C003403121D580C80D87408253FF53F0546DD
:03168C000215F252
:01168F002238
:061AA2008C728D73A90790
:101AA800E4FCAE02EB7805C333CE33CED8F9FBAAFB
:101AB80006AF01AD73121D32E4FCECC394107480C0
:101AC8009480500B121D500BBB00010A0C80EBAF29
:101AD80001E57304FD121D32E4FCECC3941074801C
:0F1AE8009480500B121D500BBB00010A0C80EBB9
:011AF70022CC
:0A19A9008F4E8C4F8D508A518B52E7
:1019B300E4F558F559AE53AF54FC7D08120E2FEDE4
:1019C3004CAE53AF54700AFC7D08120E2F8F5A8011
:1019D3000B7C007D08120E2FEF04F55A85505AC375
:1019E300E55A9554E5536480F8748098503AAD5A9B
:1019F300AF4E121D32AC4EECC39552E5516480F8E4
:101A0300748098501FAB55AA56A9570559E559AE8E
:101A1300587002055814F5828E83120D79FF121D3A
:081A23005D0C80D3055A80B769
:011A2B002298
:101BC400E5684567600875210075221E8005E4F507
:101BD40021F522E522452160137D327F021213D1C3
:0D1BE400B290E522152270EB152180E7225A
:0E143000AF1AAE19AD18AC177B007A00792BFD
:0E143E008F428E418D408C3F8B438A448945FE
:10144C00120CDF8E468F47AC46AD47EC120CA6A8AB
:10145C0004A905AA06AB07AF42AE41AD40AC3F12A2
:10146C00098DE4FBFA79C87842120A828F4B8E4AB6
:10147C008D498C48AE46AF477C007D0A120E2FEF8B
:10148C002430AB43AA44A945120DA6AE46AF477C07
:10149C00007D0A120E2FED2430AB43AA44A94590CF
:1014AC000001120DB8900002742E120DB8AF4BAEA5
:1014BC004AAD49AC48120CDF7C007D0A120E2FEFAE
:1014CC002430AB43AA44A945900003120DB8AF4B8E
:1014DC00AE4AAD49AC48120CDF7C007D0A120E2FCF
:1014EC00ED2430AB43AA44A945900004120DB890EA
:0614FC000005E4020DB83A
:0E150200AF11AE10AD0FAC0E7B007A00793940
:0E1510008F428E418D408C3F8B438A4489452B
:10151E00120CDF8E468F47AC46AD47EC120CA6A8D8
:10152E0004A905AA06AB07AF42AE41AD40AC3F12CF
:10153E00098DE4FBFA79C87842120A828F4B8E4AE3
:10154E008D498C48AE46AF477C007D64120E2FEF5E
:10155E002430AB43AA44A945120DA6AE46AF477C34
:10156E00007D0A120E2F7C007D0A120E2FED243004
:10157E00AB43AA44A945900001120DB8AE46AF4741
:10158E007C007D0A120E2FED2430AB43AA44A945F0
:10159E00900002120DB8900003742E120DB8AF4BCE
:1015AE00AE4AAD49AC48120CDF7C007D0A120E2FFC
:1015BE00EF2430AB43AA44A945900004120DB89015
:0615CE000005E4020DB867
:10174900E52360030217F9E52424FD604414604C85
:1017590024FE606A240560030217F97590AA7DC802
:101769007F021213D17D647F021213D17590557DCA
:10177900C87F021213D17D647F021213D1E51C6464
:1017890002451B6008E51C6403451B706343A0F018
:10179900227427251CF8E655A0F59022E4F5907DE2
:1017A900C87F021213D17DC87F021213D17590FF31
:1017B9007DC87F021213D17DC87F020213D17590B3
:1017C900FEE4F531F532E59025E0FFE590C4131309
:1017D9001354014FF5907D4B7F021213D10532E569
:1017E9003270020531C39408E5316480948040D693
:0117F90022CD
:100E7300E4FFFE7D7A7C44AB15AA14A913A81212D1
:100E83000C284028E53445337022F5337534017B53
:100E9300FF7A0079267D04FC7F701215E07BFF7AD0
:100EA3000079297D057C007F70121930E5344533C4
:100EB300700E85151185141085130F85120E801A77
:100EC300E4FBFA797A7844AF15AE14AD13AC121281
:100ED3000B8B8F118E108D0F8C0EE5236003021187
:100EE300D5E52424FE7003021003147003021039A5
:100EF3001470030210E61470030211351470030218
:100F0300116B240560030211D58523258524261240
:100F130014301215027BFF7A00792CE4FDFC7F0765
:100F23001219307BFF7A00793F7D017C007F01122B
:100F330019307BFF7A0079547D021215DC7B007A2D
:100F430000792B7D027C007F301215E07BFF7A0055
:100F5300795B7D027C007F581215E07BFF7A007974
:100F63005F7D041215DC7B007A0079397D047C00F7
:100F73007F481215E0E534453370107BFF7A007922
:100F8300697D04FC7F701215E08029E536453570D4
:100F9300147BFF7A0079267D04FC7F701215E075BF
:100FA30035007536017BFF7A0079297D057C007F4A
:100FB300701219307BFF7A00796B7D061215DC7B8A
:100FC300FF7A0079717D0612192C7BFF7A00797FF5
:100FD3007D0712192C7D197F021213D17D06121978
:100FE300267BFF7A0079717D0612192C7D07121971
:100FF300267BFF7A00797F7D077C007F280211D250
:101003008523258524267BFF7A00799B7D0612158F
:10101300DC7BFF7A0079A37D067C007F38121930D0
:101023007BFF7A0079AF7D077C007F38121930751A
:10103300230075240322E4F535F53685232585241D
:1010430026AF1AAE19AD18AC177BCD7ACC794C7894
:101053003E1209918F1A8E198D188C17AF15AE1485
:10106300AD13AC127B667A6679C878421209918F08
:10107300158E148D138C121214301215027B007A04
:1010830000792B7D027C007F301215E07B007A0013
:1010930079397D047C007F481215E0E53875F00648
:1010A300A42438FF7BFF7A0079BC7D077C001219EA
:1010B300300538E53870020537640C4537600302A4
:1010C30011D5F537F5387BFF7A0079AF7D07FC7FC3
:1010D300381219307BFF7A0079BE7D077C007F3898
:1010E3000211D28523258524267BFF7A0079CB7DC7
:1010F300017C007F201215E07BFF7A0079D47D0309
:101103007C007F1C1215E01215D47A0079EF1215BA
:10111300D81215D4E4F51AF519F518F517F515F5E0
:1011230014F513F512F511F510F50FF50EF533F56A
:101133003422121C1B7D787F021213D1E525600334
:101143000211D5E52614601224FB60152402600306
:101153000211D57523007524062275230075240416
:1011630022752300752401228523258524267BFFF0
:101173007A017900E4FDFC7F081215E07BFF7A0019
:10118300792C7D027C007F071219307BFF7A01796D
:101193000F7D031215DC7BFF7A01791B7D057C0033
:1011A3007F081215E07BFF7A01792A7D077C007F97
:1011B3000A1219307BFF7A01793E7D077C007F0A92
:1011C3001219307BFF7A01792A7D077C007F0A128E
:0311D300193022AE
:101B2200025B0000026100000463F8F4F2F1045D5C
:041B3200F1F2F4F8E0
:101CF400E4FDFCC3ED9FEC9E5015E4FBFA0BBB0026
:0F1D0400010AEB64704A70F50DBD00010C80E41C
:011D130022AD
:101C6800E4F54DC3E54D9404748094805016121B1E
:101C7800667463254DF8E6F5A0AD5C7F021213D1BA
:041C8800054D80DFA7
:011C8C002235
:101C8D00E4F574C3E5749404748094805016121BAB
:101C9D0066745D2574F8E6F5A0AD5C7F021213D174
:041CAD00057480DF5B
:011CB1002210
:0A1DAC00AFA0EF54F0F5A0F5A0225F
:101B66000562E56270020561B4E80AE561B4030541
:101B7600E4F561F562AE61AF627C007D1F120DDA9D
:0F1B8600ED4C700A7427251CF8E655A0F5902247
:101B9500E51B702AE51C14601114601514601924E6
:101BA50003701B755B00755C0822755B00755C0432
:0F1BB50022755B00755C0222755B00755C012276
:03002000021C6857
:03000B000211DB04
:1011D600C2AF80FE321211DA85D00B75D008AAE0B4
:1011E600C28CE58A241FF58AE58C34FCF58CD28CFA
:1011F600EC247EF8E6BC030274FFC39581B41400A8
:1012060040CE7904787516E608700BC2AFE630E179
:10121600034418F6D2AF08D9EDEA8BD0300101228B
:10122600D50DFCC0E0C0D0C0F0C083C082C000C0F5
:1012360001C002C003C004C005C006C007E50C23F8
:101246002476F87440C2AF46F6D2AFD201E50CFF61
:10125600232476F80F0808BF04047F007876E6306A
:10126600E4F200E50CC39F5020050C747D250CF8B4
:10127600E6FDA68108E6AE0CBE030274FFCDF8E8D3
:101286006D60E008E6C0E080F6E50CD39F4027E5F8
:101296000C247EF8E6AE0CBE030274FFFD18E6CD04
:1012A600F8E5816D6006D0E0F61880F5E50C247D42
:1012B600C8F6150C80D3750D03E50C232476F87F4C
:1012C60004C2AFE610E61E30E00310E20C7F0030E9
:0512D600E10730E30414
:1012DB007F0854F4547CC6D2AF54804207C201221B
:1012EB00F6D2AFD007D006D005D004D003D002D0B1
:1012FB0001D000D082D083D0F0D0D0D0E0C2012278
:10130B00787DA68174036006FF0876FFDFFB7F0400
:10131B00E47875F608F608DFFA78767630900003F5
:10132B00740193C0E0E493C0E0750D03438901752C
:0D133B008A18758CFCD28CD2AFD2A9220387
:10134800EFD3940340037FFF2274762F2FF8E62013
:10135800E5F4C2AFE64430F6D2AFAE0CEEC39F5010
:10136800210E747D2EF8E6F908E618BE030274FF14
:10137800FDED69600909E71919F7090980F31616DF
:1013880080DAEED39F400405810581EED39F402289
:10139800747D2EF808E6F9EEB50C02A98118060648
:1013A800E6FDED6960091919E70909F71980F31EC7
:1013B80080D9EF247DF8E604F8EF2F04900003931A
:0913C800F608EF2F93F67F0022D6
:1013D1008FF0E4FFFEE50C232475F8C2A930F70D68
:1013E1007F08E6600B2DF660325030800730F10641
:1013F100EDF660277E020830F010C2AFE610E72557
:101401000E30E20CD2AF7F048014C2AFE610E715B4
:1014110054EC4EF6D2AFD2A90212517F0808EF4424
:0F14210083F4C2AF56C6D2AFD2A954804FFF2278
:10098A00020D4BE86480F8E933E83360110460F043
:10099A00ED33EC337009E8FCE9FDEAFEEBFF2204D3
:1009AA0060DED3EB9FEA9EE99DE8C2E78CF0C2F7CE
:1009BA0095F0400CE8CCF8E9CDF9EACEFAEBCFFB9A
:1009CA00120D1685D0F05804700320D5B3E80470D0
:1009DA00075002B2D5020D5592D5EC0460F7E4CC6B
:1009EA00C0E0C398F8603B94186008400DD0E0FB63
:1009FA00020D2DE4FBFAC9FC8028E830E406E4C9BC
:100A0A00FBE4CAFCE830E305E4C9CACBFCE85407B6
:100A1A006010F8C3E913F9EA13FAEB13FBEC13FCC1
:100A2A00D8F130F52FC3E49CFCEF9BFFEE9AFEED64
:100A3A0099FDD0E0FBEF4E4D4C701222DB03020D04
:100A4A0052EC2CFCEF33FFEE33FEED33FDED30E7D5
:100A5A00EB020D2DEF2BFFEE3AFEED39FDD0E0FB58
:100A6A0050130BBB0003020D55ED13FDEE13FEEF01
:080A7A0013FFEC13FC020D2D2B
:100A8200EC4D6011E8497017ED33EC3304600DE46E
:100A9200FCFFFEFD22E933E8330470F8020D4B122D
:100AA2000D1658046009E4CC24815006285009022E
:100AB2000D55284003020D52C0E0EB4A7044B98044
:100AC20006D0E0FB020D41EF4E701CBD8008EBFF2B
:100AD200EAFEE9FD80EBE98DF0A4FEE5F0020B6B86
:100AE200E9CDF9EAFEEBFFEF89F0A4FCE5F0CE894F
:100AF200F0A42EFFE435F0CD89F0A42DFEE435F00C
:100B02008067EF4E7005BD80D780C3EF8BF0A4AC39
:100B1200F0EE8BF0A42CFCE435F0F8EF8AF0A42C74
:100B2200E5F038FCE433CB8DF0A42CFCE5F03BF887
:100B3200EE8AF0A42CFCE5F038F8E433CF89F0A477
:100B42002CFCE5F038CF3400CE89F0A42FFFE5F07D
:100B52003EFEE433C98DF0A42EFEE5F039CD8AF0D5
:100B6200A42FFFE5F03EFEE43DFD33D0E0FB50074D
:100B72000BBB000F020D55EC2CFCEF33FFEE33FEE6
:060B8200ED33FD020D2D14
:100B8800020D55EC5D046005E859047003020D4B35
:100B9800120D16580460F6EC4860F2EC7004FDFE85
:100BA800FF22C860DB2481C85009C3986002500640
:100BB800020D529850CAF582E9294B4A7005AB825A
:100BC800020D4175F0007C1A7880C3EF9BEE9AED18
:100BD80099400DC3EF9BFFEE9AFEED99FDE842F0B8
:100BE800DC23ACF0D0E0FFD0E0FED0E0FDAB82200B
:100BF800E7101BEB60BAEC2CFCEF33FFEE33FEED95
:100C080033FD020D2DE803F830E705C0F075F0005C
:100C1800EF2FFFEE33FEED33FD40B830E7C280AA78
:100C280074F8CC6480CCC86480C8F58204604FC373
:100C3800EB9FF5F0EA9E42F0E99D42F0E89C45F012
:100C4800603C501DE5825FFFE582D313CB5BCBF49C
:100C58002B5582FB50280ABA002409B900200880C5
:100C68001DE5825BFBE582D313CF5FCFF4C3132F5F
:100C78005582FF50090EBE00050DBD00010CC3EBE7
:100C88009FF5F0EA9E42F0E99D42F0E89C45F0604D
:090C980007CC4820E701B3EC226F
:100CA10075F020800E75F010800575F0087D007ECE
:100CB100007F003392D530D503120E65EC3340101E
:100CC100EF33FFEE33FEED33FDEC33FCD5F0ED22D7
:0E0CD100E5F0247EA2D513CC92E7CDCEFF2213
:100CDF00EDD2E7CD33EC3392D524814006E4FFFE0D
:100CEF00FDFC22FCE4CFCECDCC24E0501174FF806C
:100CFF00EDC3CC13CCCD13CDCE13CECF13CF047009
:070D0F00F030D5DE020E6595
:100D1600E9D2E7C933E833F892D5EDD2E7CD33EC23
:070D260033FC5002B2D5229C
:100D2D00EC30E7100FBF000C0EBE00080DBD000427
:100D3D000BEB6014A2D5EB13FCED92E7FD2274FFD3
:100D4D00FCFDFEFF22E480F8A2D574FF13FC7D802C
:030D5D00E480EF40
:0300000002189A49
:0C189A00787FE4F6D8FD7581800218E12B
:100D6000BB010689828A83E0225002E722BBFE0291
:090D7000E32289828A83E49322C4
:100D7900BB010CE58229F582E5833AF583E022502F
:100D890006E92582F8E622BBFE06E92582F8E22279
:0D0D9900E58229F582E5833AF583E4932293
:100DA600BB010689828A83F0225002F722BBFE012C
:020DB600F32226
:100DB800F8BB010DE58229F582E5833AF583E8F071
:100DC800225006E92582C8F622BBFE05E92582C81D
:020DD800F22205
:100DDA00BC000BBE0029EF8DF084FFADF022E4CCFD
:100DEA00F875F008EF2FFFEE33FEEC33FCEE9DECC6
:100DFA00984005FCEE9DFE0FD5F0E9E4CEFD22ED0C
:100E0A00F8F5F0EE8420D21CFEADF075F008EF2F55
:100E1A00FFED33FD4007985006D5F0F222C398FD46
:050E2A000FD5F0EA22E3
:100E2F00C2D5EC30E709B2D5E4C39DFDE49CFCEEDE
:100E3F0030E715B2D5E4C39FFFE49EFE120DDAC36F
:100E4F00E49DFDE49CFC8003120DDA30D507C3E46A
:060E5F009FFFE49EFE224D
:0E0E6500C3E49FFFE49EFEE49DFDE49CFC229E
:1018A60002130BE493A3F8E493A34003F68001F23A
:1018B60008DFF48029E493A3F85407240CC8C33343
:1018C600C4540F4420C8834004F456800146F6DF12
:1018D600E4800B0102040810204080901AF8E47E90
:1018E600019360BCA3FF543F30E509541FFEE49307
:1018F600A360010ECF54C025E060A840B8E493A3CE
:10190600FAE493A3F8E493A3C8C582C8CAC583CAF8
:10191600F0A3C8C582C8CAC583CADFE9DEE780BEB0
:011B360000AE
:00000001FF
