:03000000020003F8
:0C000300787FE4F6D8FD75811702004AF2
:1000B200081007064F3F3F4F3F3F08080102040860
:0400C200102040804A
:0800C7007FC8AE071FEE70FABE
:0100CF00220E
:10008F00E4FDEDC394087480948050F474082DF847
:10009F00E6F5A075809074102DF8E6F5801200C774
:0300AF000D80DFE2
:10000F0002008FE493A3F8E493A34003F68001F278
:10001F0008DFF48029E493A3F85407240CC8C333F2
:10002F00C4540F4420C8834004F456800146F6DFC1
:10003F00E4800B01020408102040809000B2E47E9F
:10004F00019360BCA3FF543F30E509541FFEE493B6
:10005F00A360010ECF54C025E060A840B8E493A37D
:10006F00FAE493A3F8E493A3C8C582C8CAC583CAA8
:10007F00F0A3C8C582C8CAC583CADFE9DEE780BE60
:0100C6000039
:00000001FF
