:030000000203A94F
:0C03A900787FE4F6D8FD7581300203F087
:10056D000223000002210000C10202250000022723
:06057D000000022900004D
:08060C00C3EE64809480401AE3
:10061400752DA7752CAB752B10D52BFDD52CF7D5C7
:030624002DF100B5
:08062700EF1F70E11E80DE22CE
:08062F00C3EE648094804019C1
:10063700753001752F8E752E02D52EFDD52FF7D566
:0206470030F190
:08064900EF1F70E21E80DF22AA
:1006BB00438901758CFC758A18D2A9D2AFD28C22D2
:0F06CB00438910E4F58DF58BD2ABD2AFC28E22EE
:03000B000204A844
:1004A800C0E0C0F0C083C082C0D075D010758CFC8D
:1004B800758A180524E524700205230518051D1200
:1004C800065112066F0522E52270020521C39464C5
:1004D800E5219400400975210075220012068DD08F
:0A04E800D0D082D083D0F0D0E032F3
:03001B00020731A8
:03073100D20232BF
:1005360030A00FE4F58DF58BD28E20A0FDC28E1271
:100546000435E50A700512070080E5E50AB401E006
:1005560012000E30A0F5E4F58DF58BD28E20A0FDAD
:07056600C28E12043580E48F
:1006A7001206BB1206CB751A0475190412000E1236
:0406B700053680FB89
:10058300011800011C00011D00011B00C181C18075
:05001E00C291D2922204
:06070C00851A1C85191B73
:05071200D291C2922209
:05071D00D291D29222EE
:05072200C293D29422F5
:05072700D293C29422F0
:05072C00D293D29422DB
:10065100300118E518D3951C5004D2968002C29639
:0E066100E518C3940A4006E4F51822C296225A
:10066F00300018E51DD3951B5004D2978002C29716
:0E067F00E51DC3940A4006E4F51D22C2972231
:0C000E00851A1C85191B12001E02072217
:0600030012070C020727A2
:0C06E800851A1C85191B1207220207123C
:0C06F400851A1C85191B12072702001E26
:0C070000851A1C85191B12071D02072C0E
:0607170012070C0207228C
:06059300040B0000000053
:10068D00D2A10000000000000000000000000000EA
:0A069D0000000000000000C2A122CE
:10043500AF8DEFFEAD8B7C00E42DF509EC3EF508A4
:10044500E4F58DF58BAC08AD0912024A7B297A5C7F
:1004550079EF783F120026E4FBFA79C87842120159
:100465002F8F0E8E0D8D0C8C0B200229E4FFFE7D47
:10047500487C42AB0EAA0DA90CA80B1201CC600258
:100485005013E4FFFEFD7C40AB0EAA0DA90CA80B92
:100495001201CC5008C202D280750A0122C280E442
:0304A500F50A2233
:1005C20030B40630B30302000E20B40620B3030297
:1005D200000330B40620B3030206E820B40630B3A9
:0505E200031206F422E3
:1005E70020B60620B70302000E20B60630B7030276
:1005F70006E830B60620B7030206F430B60630B771
:050607000312000322B4
:10059A0075985053890F438920AB07AA06E4F9F8E6
:1005AA007F807E70FDFC1204F2EFF404F58D858DD8
:0805BA008BC2ABD2ACD28E2241
:030023000206DAF8
:0E06DA00309805C298859900309902C2993275
:10002600EC4D6011E8497017ED33EC3304600DE4D4
:10003600FCFFFEFD22E933E8330470F80202B81231
:10004600028358046009E4CC248150062850090232
:1000560002C22840030202BFC0E0EB4A7044B980E6
:1000660006D0E0FB0202AEEF4E701CBD8008EBFF2F
:10007600EAFEE9FD80EBE98DF0A4FEE5F002010F52
:10008600E9CDF9EAFEEBFFEF89F0A4FCE5F0CE89B5
:10009600F0A42EFFE435F0CD89F0A42DFEE435F072
:1000A6008067EF4E7005BD80D780C3EF8BF0A4ACA0
:1000B600F0EE8BF0A42CFCE435F0F8EF8AF0A42CDB
:1000C600E5F038FCE433CB8DF0A42CFCE5F03BF8EE
:1000D600EE8AF0A42CFCE5F038F8E433CF89F0A4DE
:1000E6002CFCE5F038CF3400CE89F0A42FFFE5F0E4
:1000F6003EFEE433C98DF0A42EFEE5F039CD8AF03C
:10010600A42FFFE5F03EFEE43DFD33D0E0FB5007B3
:100116000BBB000F0202C2EC2CFCEF33FFEE33FEEA
:06012600ED33FD02029A18
:10012C000202C2EC5D046005E8590470030202B8D7
:10013C00120283580460F6EC4860F2EC7004FDFE89
:10014C00FF22C860DB2481C85009C39860025006A6
:10015C000202BF9850CAF582E9294B4A7005AB825E
:10016C000202AE75F0007C1A7880C3EF9BEE9AED1C
:10017C0099400DC3EF9BFFEE9AFEED99FDE842F01E
:10018C00DC23ACF0D0E0FFD0E0FED0E0FDAB822071
:10019C00E7101BEB60BAEC2CFCEF33FFEE33FEEDFB
:1001AC0033FD02029AE803F830E705C0F075F00061
:1001BC00EF2FFFEE33FEED33FD40B830E7C280AADF
:1001CC0074F8CC6480CCC86480C8F58204604FC3DA
:1001DC00EB9FF5F0EA9E42F0E99D42F0E89C45F079
:1001EC00603C501DE5825FFFE582D313CB5BCBF403
:1001FC002B5582FB50280ABA002409B9002008802C
:10020C001DE5825BFBE582D313CF5FCFF4C3132FC5
:10021C005582FF50090EBE00050DBD00010CC3EB4D
:10022C009FF5F0EA9E42F0E99D42F0E89C45F060B3
:09023C0007CC4820E701B3EC22D5
:1002450075F020800E75F010800575F0087D007E34
:10025500007F003392D530D5031202CDEC33401028
:10026500EF33FFEE33FEED33FDEC33FCD5F0ED223D
:0E027500E5F0247EA2D513CC92E7CDCEFF2279
:10028300E9D2E7C933E833F892D5EDD2E7CD33ECC1
:0702930033FC5002B2D5223A
:10029A00EC30E7100FBF000C0EBE00080DBD0004C5
:1002AA000BEB6014A2D5EB13FCED92E7FD2274FF71
:1002BA00FCFDFEFF22E480F8A2D574FF13FC7D80CA
:0302CA00E480EFDE
:1003B5000206A7E493A3F8E493A34003F68001F2B1
:1003C50008DFF48029E493A3F85407240CC8C33349
:1003D500C4540F4420C8834004F456800146F6DF18
:1003E500E4800B010204081020408090056DE47E36
:1003F500019360BCA3FF543F30E509541FFEE4930D
:10040500A360010ECF54C025E060A840B8E493A3D3
:10041500FAE493A3F8E493A3C8C582C8CAC583CAFE
:10042500F0A3C8C582C8CAC583CADFE9DEE780BEB6
:010599000061
:1004F200C2D5E830E70FB2D5E4C39BFBE49AFAE435
:1005020099F9E498F8EC30E717B2D51205281203EE
:1005120017E4C39BFBE49AFAE499F9E498F88003A0
:1005220012031730D50DE4C39FFFE49EFEE49DFD48
:04053200E49CFC2227
:0E02CD00C3E49FFFE49EFEE49DFDE49CFC2242
:1002DB0075F008758200EF2FFFEE33FECD33CDCCDA
:1002EB0033CCC58233C5829BED9AEC99E58298405D
:1002FB000CF582EE9BFEED9AFDEC99FC0FD5F0D63A
:10030B00E4CEFBE4CDFAE4CCF9A88222B800C1B963
:10031B000059BA002DEC8BF084CFCECDFCE5F0CBA1
:10032B00F97818EF2FFFEE33FEED33FDEC33FCEBDA
:10033B0033FB10D703994004EB99FB0FD8E5E4F995
:10034B00FA227818EF2FFFEE33FEED33FDEC33FC82
:10035B00C933C910D7059BE99A4007EC9BFCE99A76
:10036B00F90FD8E0E4C9FAE4CCFB2275F010EF2FBB
:10037B00FFEE33FEED33FDCC33CCC833C810D707BB
:10038B009BEC9AE899400AED9BFDEC9AFCE899F8F6
:0E039B000FD5F0DAE4CDFBE4CCFAE4C8F92289
:00000001FF
