:030000000200F308
:0C00F300787FE4F6D8FD7581080200E576
:1000A300434C522831293B0D0A00E68DA2E8A18C6E
:0800B30000E59B9EE8BDA600DC
:0E00E5001200BB7BFF7A0079A31200D280FECE
:1000BB0053877F75984053890F438920758BFD7546
:0700CB008DFDD28EC2AB22B5
:03002300020026B2
:10002600C0E0C0F0C083C082C0D075D000C000C0A0
:0D00360001C002C003C004C005C006C00721
:10004300309829C298859908E508640A70087BFFEF
:100053007A0079AD800CE508640D700B7BFF7A00A4
:0C00630079B41200D28005AF081200FF33
:10006F00D007D006D005D004D003D002D001D000E5
:0B007F00D0D0D082D083D0F0D0E0328F
:0800FF008F993099FDC299228E
:1000D20012008AFF600C1200FF740129F9E43AFA57
:0300E20080EE228B
:10000300EF1FAA0670011E4A6013E4FCFDC3ED94C2
:0D0013007DEC940050EA0DBD00010C80F062
:0100200022BD
:10008A00BB010689828A83E0225002E722BBFE0274
:09009A00E32289828A83E49322A7
:00000001FF
