:0300000002092CC6
:0C092C00787FE4F6D8FD75814202097363
:10002E004449522831293B0D0A00434C52283029AD
:10003E003B0D0A004653494D47283230393731358A
:10004E00322C302C302C3136302C3132382C3029A9
:10005E003B0D0A004653494D472832313338313172
:10006E00322C302C302C3136302C3132382C302989
:10007E003B0D0A004653494D472832313739303748
:10008E00322C302C302C3136302C3132382C302969
:10009E003B0D0A004653494D472832323230303339
:1000AE00322C302C302C3136302C3132382C302949
:1000BE003B0D0A004653494D472832323630393906
:1000CE00322C302C302C3136302C3132382C302929
:1000DE003B0D0A004653494D4728323330313935EE
:1000EE00322C302C302C3136302C3132382C302909
:1000FE003B0D0A004653494D4728323334323931CD
:10010E00322C302C302C3136302C3132382C3029E8
:10011E003B0D0A004653494D4728323338333837A2
:10012E00322C302C302C3136302C3132382C3029C8
:10013E003B0D0A00444331362837362C31302C27FC
:10014E00BBB6D3ADCAB9D3C3272C31293B0D0A0098
:10015E00444331362836382C32362C27D6C7C4DCE9
:10016E00C0ACBBF8CDB0272C31293B0D0A00424F55
:10017E005828392C3130352C3134392C3131352C3D
:10018E0031293B0D0A004443313628392C38382C9E
:10019E0027C0ACBBF8CDB0B8C7B4F2BFAAD6D02733
:1001AE002C31293B0D0A00424F582831362C32385B
:1001BE002C33352C36362C31293B0D0A00424F5844
:1001CE004628392C3130352C32352C3131352C3105
:1001DE00293B0D0A004443313628392C38382C2758
:1001EE00C0ACBBF8CDB0B8C7B4F2BFAAD6D02A27E0
:1001FE002C31293B0D0A00504C2835312C32382C2D
:10020E0035312C36362C31293B0D0A00504C28370F
:10021E00302C36362C37302C32382C31293B0D0A07
:10022E0000504C2837302C36362C35312C36362CA7
:10023E0031293B0D0A00504C2835312C32382C36E2
:10024E00382C32332C31293B0D0A00424F584628A8
:10025E00392C3130352C34352C3131352C31293B7C
:10026E000D0A00504C2838362C32382C38362C36A5
:10027E00362C31293B0D0A00504C283130352C36A6
:10028E00362C3130352C32382C31293B0D0A0050AA
:10029E004C2838362C36362C3130352C36362C311F
:1002AE00293B0D0A00504C283130302C31372C3878
:1002BE00362C32382C31293B0D0A00424F58462835
:1002CE00392C3130352C37352C3131352C31293B09
:1002DE000D0A004443313628392C38382C27C0AC4F
:1002EE00BBF8CDB0B8C7B4F2BFAAD6D02A2A272CF5
:1002FE0031293B0D0A00504C283132322C32382C29
:10030E003132322C36362C31293B0D0A00504C2816
:10031E003134312C32382C3134312C36362C3129C3
:10032E003B0D0A00504C283132322C36362C3134EB
:10033E00312C36362C31293B0D0A00504C283132E7
:10034E00382C31312C3132322C32382C31293B0DB4
:10035E000A00424F584628392C3130352C31343969
:10036E002C3131352C31293B0D0A004443313628CE
:10037E00392C38382C27C0ACBBF8CDB0B8C7B4F286
:10038E00BFAAD6D02A2A2A272C31293B0D0A00448F
:10039E0043313628392C38382C27C0ACBBF8CDB0B9
:1003AE00B8C7D2D1B3C9B9A6B4F2BFAA2A272C3185
:1003BE00293B0D0A004443313628392C38382C2776
:1003CE00C0ACBBF8CDB0B8C7B9D8B1D5D6D0272CF4
:1003DE0031293B0D0A00504C2831362C32382C3145
:1003EE00362C36362C31293B0D0A00504C2833352D
:1003FE002C36362C33352C32382C31293B0D0A0055
:10040E00504C2831362C36362C33352C36362C3192
:10041E00293B0D0A00504C2832342C31312C313608
:10042E002C32382C31293B0D0A0044433136283901
:10043E002C38382C27C0ACBBF8CDB0B8C7B9D8B162
:10044E00D5D6D02A272C31293B0D0A00504C283600
:10045E00362C31372C35312C32382C31293B0D0AC4
:10046E0000504C283130302C32332C38362C323868
:10047E002C31293B0D0A004443313628392C3838AB
:10048E002C27C0ACBBF8CDB0B8C7B9D8B1D5D6D033
:10049E002A2A272C31293B0D0A00424F5828313287
:1004AE00322C32382C3134312C36362C31293B0D4E
:1004BE000A004443313628392C38382C27C0ACBBBF
:1004CE00F8CDB0B8C7B9D8B1D5D6D02A2A2A272C9C
:1004DE0031293B0D0A004443313628392C38382C4B
:1004EE0027C0ACBBF8CDB0B8C7D2D1B3C9B9A6B985
:0D04FE00D8B1D52A272C31293B0D0A00006A
:100BBD00010B00010A0001170001090001160001D7
:050BCD000C020108000C
:040D21007F207E03AE
:0B0D2500EF1FAC0670011E4C70F622A0
:070D4000E4FD7F0302000344
:070D47007D017F03020003A0
:100CEA000508D3E50894C8748094804003750864A5
:0E0CFA00B2B5E50964017003B2B022D2B02297
:10077C00120CC97F507EC3120D257BFF7A00792E97
:10078C00120D0E7F407E1F120D257BFF7A00792EF5
:10079C00120D0E7F407E1F120D25120D087FD07E8C
:1007AC0007120CAB120C277BFF7A0C79EA7FE87EE0
:1007BC0003120C5BC2B0C2907F507EC3120D25D2C7
:1007CC00A7D2A620A6127FF47E01120D2520A60E1C
:1007DC00750B01E4F5088006E5167002F50B20A7F1
:1007EC00107FF47E01120D2520A706750B01E4F590
:1007FC0008D2912091197FF47E01120D2520910FC2
:10080C00750B01751701E4F5086316FF3091FDAF08
:10081C00097E00EF700AE50A7006E50B6401600EB4
:10082C00EF64014E7031E50A702DE5176029750AE9
:10083C0001120D4012050B7F407E1F120D25120C6C
:10084C00837F407E1F120D25C2907F207E03120CE9
:10085C00AB120C27E4F517E50A6401702AE50B705E
:10086C00267FD07E07120CAB120D471206487F4034
:10087C007E1F120D25120B877FE87E03120CAB1224
:0C088C000C27D290E4F50AC2900207CBC2
:0709B8007E1F7F40120D2598
:1009BF00E50CB4080050679009CDF8282873020998
:1009CF00E50209ED0209F50209FD020A05020A0D09
:1009DF00020A15020A217BFF7A007942802E7BFFE3
:1009EF007A00796280267BFF7A007982801E7BFFF6
:1009FF007A0079A280167BFF7A0079C2800E7BFF86
:100A0F007A0079E280067BFF7A017902120D0E05DA
:0F0A1F000C227BFF7A017922120D0EE4F50C22D6
:100C2700120D081209B87F407E9C120D257FA07E09
:100C37000F120D257BFF7A017942120D0E7FB87EC8
:100C47000B120D257BFF7A01795E120D0E7FB87EA0
:040C57000B020D255A
:10050B00120D081209B87F407E9C120D257BFF7AD5
:10051B0001797C120D0E120D217BFF7A0179941259
:10052B000D0E120D21120CA77BFF7A0179B5120D5E
:10053B000E120D217BFF7A0179CB120D0E120D21BC
:10054B007BFF7A0179E3120D0E120D21120CA7120B
:10055B000D217BFF7A027905120D0E120D217BFF07
:10056B007A02791A120D0E120D217BFF7A02792F66
:10057B00120D0E120D217BFF7A027944120D0E1211
:10058B000D217BFF7A027959120D0E120D217BFF83
:10059B007A0179E3120D0E120D21120CA7120D2107
:1005AB007BFF7A027971120D0E120D217BFF7A02FD
:1005BB007986120D0E120D217BFF7A02799D120D99
:1005CB000E120D217BFF7A0279B3120D0E120D2143
:1005DB007BFF7A0279C9120D0E120D217BFF7A0275
:1005EB0079E1120D0E120D21120CA7120D217BFFBA
:1005FB007A037904120D0E120D217BFF7A03791BFE
:10060B00120D0E120D217BFF7A037932120D0E1291
:10061B000D217BFF7A037949120D0E120D217BFF01
:10062B007A037960120D0E120D217BFF7A03797913
:0D063B00120D0E120D217F587E02020CAB35
:100C8300120D087E9C1209BA7F407E9C120D257BB3
:100C9300FF7A03799D120D0E120D217BFF7A0379E2
:040CA30060020D0ED0
:10064800120D081209B87F407E9C120D257BFF7A97
:1006580001797C120D0E120D217BFF7A0379C312EA
:100668000D0E120D21120CA77BFF7A0379E4120DEF
:100678000E120D217BFF7A0379F9120D0E120D214E
:100688007BFF7A04790E120D0E120D217BFF7A047E
:100698007923120D0E120D217BFF7A0179CB120DF1
:1006A8000E120D217BFF7A047938120D0E120D21DE
:1006B800120CA77BFF7A027905120D0E120D217B11
:1006C800FF7A02791A120D0E120D217BFF7A027938
:1006D8002F120D0E120D217BFF7A04795A120D0E7E
:1006E800120D217BFF7A027959120D0E120D217B12
:1006F800FF7A047938120D0E120D21120CA77BFF18
:100708007A027971120D0E120D217BFF7A02798619
:10071800120D0E120D217BFF7A02799D120D0E1219
:100728000D217BFF7A04796F120D0E120D217BFFCC
:100738007A0279C9120D0E120D217BFF7A04798590
:10074800120D0E120D21120CA77BFF7A0479A81244
:100758000D0E120D217BFF7A037960120D0E120D1A
:10076800217BFF7A0479C0120D0E120D217F587E6D
:0407780002020CABC2
:100B8700120D087F207E4E120D257BFF7A007942D9
:100B9700120D0E7F207E4E120D257BFF7A0479E41D
:100BA700120D0E120D217BFF7A037960120D0E7F55
:060BB700587E02020CABA7
:100CC90053877F75985053890F438920758BFD751C
:100CD9008DFDC2ABD28ED29CD2ACD2AFC299C29892
:010CE90022E8
:03002300020A8E40
:100A8E00C0E0C0F0C083C082C0D075D000C000C02E
:0D0A9E0001C002C003C004C005C006C007AF
:100AAB00309823C298859942E542640A7002800609
:100ABB00E542640D700B7BFF7A05790A120D0E80EF
:060ACB0005AF42120D30E0
:100AD100D007D006D005D004D003D002D001D00079
:0B0AE100D0D0D082D083D0F0D0E03223
:080D30008F993099FDC2992250
:060D08007BFF7A00793840
:100D0E00120BF2FF600C120D30740129F9E43AFA5D
:030D1E0080EE2242
:040CA7007F647E00E8
:100CAB00EF1FAA0670011E4A6013E4FCFDC3ED940E
:0D0CBB007DEC940050EA0DBD00010C80F0AE
:010CC8002209
:080D3800F1F2F4F8F8F4F2F115
:0F0BD20002260000021B0000021901C2011800D8
:10089800E5187042C3E51C951AE51B9519503743B6
:1008A800A00F0527E527AE2670020526142438F583
:1008B80082740D3EF583E49352A0C3E5279404E5C2
:1008C80026648094804005E4F526F527051CE51C80
:1008D8007002051B8040C3E51C951AE51B9519504D
:1008E8003543A00F0527E527AE26700205261424F8
:1008F8003CF582740D3EF583E49352A0C3E527943A
:1009080004E526648094804005E4F526F527051C57
:10091800E51C7002051BC3E51C951AE51B951940DB
:0409280002C2CA221B
:100003008D187E007BFF7A087998120C5BE4F51B50
:03001300F51C22B7
:080BE1000233000002280000AD
:03002B00020AECDA
:100AEC00C0E0C0F0C083C082C0D075D000C000C0D0
:0D0AFC0001C002C003C004C005C006C00751
:100B0900C2CF0529E52970020528C39534E5289542
:100B190033400D752800752900AA2EA92F120C2122
:100B2900D007D006D005D004D003D002D001D00020
:0B0B3900D0D0D082D083D0F0D0E032CA
:100C5B008E338F348B2D8A2E892FE4F5C9F5C87509
:100C6B00CC6675CDFC75CA6675CBFCD2CAD2AFD239
:080C7B00ADD2CAD2BDC2CF22E6
:080BE90002400000023500008B
:03001B00020A2EA8
:100A2E00C0E0C0F0C083C082C0D075D000C000C08E
:0D0A3E0001C002C003C004C005C006C0070F
:100A4B00C28E758DFC758B6BD28E0536E5367002BA
:100A5B000535C39541E5359540400D753500753627
:080A6B0000AA3BA93C120C217A
:100A7300D007D006D005D004D003D002D001D000D7
:0B0A8300D0D0D082D083D0F0D0E03281
:100B44008E408F418B3A8A3B893C53890F438910ED
:100B5400758DFC758B6BD2AFD2ABD28EC3E541944D
:100B640001E540648094804017AE40AF41EE339578
:100B7400E0FDFCE47B607AEAF9F8C3120C0B500246
:030B8400C28E22FC
:1009380002077CE493A3F8E493A34003F68001F252
:1009480008DFF48029E493A3F85407240CC8C333C0
:10095800C4540F4420C8834004F456800146F6DF8F
:10096800E4800B0102040810204080900BBDE47E57
:10097800019360BCA3FF543F30E509541FFEE49384
:10098800A360010ECF54C025E060A840B8E493A34B
:10099800FAE493A3F8E493A3C8C582C8CAC583CA76
:1009A800F0A3C8C582C8CAC583CADFE9DEE780BE2E
:010BF1000003
:100BF200BB010689828A83E0225002E722BBFE0201
:090C0200E32289828A83E4932233
:100C0B00EB9FF5F0EA9E42F0E99D42F0EC6480C860
:060C1B0064809845F02200
:060C21008A838982E4735E
:00000001FF
