:03000000020003F8
:0C000300787FE4F6D8FD75811802004AF1
:1001A70011083F065B4F666D7D077F6F777C395E71
:0301B7007971005B
:10019300EF4E600F7D027CC7DCFEDDFCEF1F70F0CD
:0301A3001E80EDCE
:0101A6002236
:10011A00AB07AA06C374089BFBE49AFA7C007D022B
:10012A00AF03FE12008FEC4D24FF92A27C007D02E9
:10013A00AF03AE0212008FAA06AB077C007D021243
:10014A00008FEC4D24FF92A37C007D02AF03AE0228
:10015A0012008F7C007D0212008FEC4D24FF92A4C6
:01016A002272
:10016B00900001AF82AE8312011AAF8274072FF891
:10017B00E6F5807FC87E00120193E4F580A3E5824B
:08018B006409458370DD80D892
:10000F0002016BE493A3F8E493A34003F68001F29B
:10001F0008DFF48029E493A3F85407240CC8C333F2
:10002F00C4540F4420C8834004F456800146F6DFC1
:10003F00E4800B01020408102040809001A7E47EA9
:10004F00019360BCA3FF543F30E509541FFEE493B6
:10005F00A360010ECF54C025E060A840B8E493A37D
:10006F00FAE493A3F8E493A3C8C582C8CAC583CAA8
:10007F00F0A3C8C582C8CAC583CADFE9DEE780BE60
:0101BA000044
:10008F00C2D5EC30E709B2D5E4C39DFDE49CFCEE8C
:10009F0030E715B2D5E4C39FFFE49EFE1200C5C33F
:1000AF00E49DFDE49CFC80031200C530D507C3E43A
:0600BF009FFFE49EFE22FB
:1000C500BC000BBE0029EF8DF084FFADF022E4CC1F
:1000D500F875F008EF2FFFEE33FEEC33FCEE9DECE8
:1000E500984005FCEE9DFE0FD5F0E9E4CEFD22ED2E
:1000F500F8F5F0EE8420D21CFEADF075F008EF2F78
:10010500FFED33FD4007985006D5F0F222C398FD68
:050115000FD5F0EA2205
:00000001FF
