:0300000002083FB4
:0C083F00787FE4F6D8FD75814102088640
:10002E004449522831293B0D0A00434C52283029AD
:10003E003B0D0A004653494D47283230393731358A
:10004E00322C302C302C3136302C3132382C3029A9
:10005E003B0D0A005152434F444528382C382C682A
:10006E00747470733A2F2F716D2E71712E636F6DC4
:10007E002F6367692D62696E2F716D2F71723F6BE1
:10008E003D4E733739367563384579736F47313165
:10009E006731565672766F6D4C5876484555537388
:1000AE0066266E6F7665726966793D30232C313027
:1000BE00302C30293B0D0A00444331362831322C86
:1000CE0036342C275151C3FBC6AC272C31293B0D9E
:1000DE000A00444331362837362C31302C27BBB634
:1000EE00D3ADCAB9D3C3272C31293B0D0A004443E3
:1000FE0031362836382C32362C27D6C7C4DCC0AC65
:10010E00BBF8CDB0272C31293B0D0A0044433136C4
:10011E002831322C38302C27D6C6D7F73A32313028
:10012E0030333030333137272C31293B0D0A004420
:10013E004331362831322C39362C27C0EEC6DACD73
:10014E00F5C9EAA3A87368656EA3A9272C31293BCC
:10015E000D0A00424F5828392C3130352C313439A4
:10016E002C3131352C31293B0D0A004443313628D0
:10017E00392C38382C27C0ACBBF8CDB0B8C7B4F288
:10018E00BFAAD6D0272C31293B0D0A00424F582842
:10019E0031362C32382C33352C36362C31293B0D5A
:1001AE000A00424F584628392C3130352C32352C26
:1001BE003131352C31293B0D0A0044433136283973
:1001CE002C38382C27C0ACBBF8CDB0B8C7B4F2BFB2
:1001DE00AAD6D02A272C31293B0D0A00504C28359F
:1001EE00312C32382C35312C36362C31293B0D0A38
:1001FE0000504C2837302C36362C37302C32382CD9
:10020E0031293B0D0A00504C2837302C36362C3510
:10021E00312C36362C31293B0D0A00504C28353105
:10022E002C32382C36382C32332C31293B0D0A0027
:10023E00424F584628392C3130352C34352C31313B
:10024E00352C31293B0D0A00504C2838362C3238CB
:10025E002C38362C36362C31293B0D0A00504C28C2
:10026E003130352C36362C3130352C32382C312974
:10027E003B0D0A00504C2838362C36362C31303592
:10028E002C36362C31293B0D0A00504C283130309B
:10029E002C31372C38362C32382C31293B0D0A00B4
:1002AE00424F584628392C3130352C37352C3131C8
:1002BE00352C31293B0D0A004443313628392C3870
:1002CE00382C27C0ACBBF8CDB0B8C7B4F2BFAAD695
:1002DE00D02A2A272C31293B0D0A00504C283132C6
:1002EE00322C32382C3132322C36362C31293B0D11
:1002FE000A00504C283134312C32382C3134312C08
:10030E0036362C31293B0D0A00504C283132322C16
:10031E0036362C3134312C36362C31293B0D0A0031
:10032E00504C283132382C31312C3132322C32387B
:10033E002C31293B0D0A00424F584628392C3130BA
:10034E00352C3134392C3131352C31293B0D0A0005
:10035E004443313628392C38382C27C0ACBBF8CD65
:10036E00B0B8C7B4F2BFAAD6D02A2A2A272C312970
:10037E003B0D0A004443313628392C38382C27C01F
:10038E00ACBBF8CDB0B8C7D2D1B3C9B9A6B4F2BF21
:10039E00AA2A272C31293B0D0A004443313628392D
:1003AE002C38382C27C0ACBBF8CDB0B8C7B9D8B1F3
:1003BE00D5D6D0272C31293B0D0A00504C2831368A
:1003CE002C32382C31362C36362C31293B0D0A0086
:1003DE00504C2833352C36362C33352C32382C31C4
:1003EE00293B0D0A00504C2831362C36362C33352D
:1003FE002C36362C31293B0D0A00504C2832342C29
:10040E0031312C31362C32382C31293B0D0A004437
:10041E0043313628392C38382C27C0ACBBF8CDB038
:10042E00B8C7B9D8B1D5D6D02A272C31293B0D0A59
:10043E0000504C2836362C31372C35312C32382C96
:10044E0031293B0D0A00504C283130302C32332CE0
:10045E0038362C32382C31293B0D0A0044433136C4
:10046E0028392C38382C27C0ACBBF8CDB0B8C7B95A
:10047E00D8B1D5D6D02A2A272C31293B0D0A0042D5
:10048E004F58283132322C32382C3134312C36360A
:10049E002C31293B0D0A004443313628392C38388B
:1004AE002C27C0ACBBF8CDB0B8C7B9D8B1D5D6D013
:1004BE002A2A2A272C31293B0D0A0044433136289B
:1004CE00392C38382C27C0ACBBF8CDB0B8C7D2D138
:1004DE00B3C9B9A6B9D8B1D52A272C31293B0D0AF3
:1004EE0000444332342832302C34302C27C0ACBB7D
:1004FE00F8CDB0D2D1C2FA272C3134293B0D0A00E7
:10050E004443313628392C38382C27C0ACBBF8CDB3
:10051E00B0B8C7D2D1C7BFD6C6B4F2BFAA272C3146
:06052E00293B0D0A00004C
:100C7800011C00011A00012600011900011B0001D6
:020C8800180052
:040DE2007F207E03ED
:0B0DE600EF1FAC0670011E4C70F622DF
:070E0100E4FD7F0302000382
:070E08007D017F03020003DE
:100DC9000518E518D394C84003751864B2B5E51938
:090DD900B40103B2B722D2B72223
:1009C900120D287F207EA1120DE67BFF7A00792E79
:1009D900120D7E7F407E1F120DE67BFF7A0079386B
:1009E900120D7ED2937FD07E07120D531209567BCA
:1009F900FF7A0D79C97FE87E03120D00C2B7C29054
:100A09007F507EC3120DE67F507EC3120DE67F50E4
:100A19007EC3120DE67F507EC3120DE6D2A71208DF
:100A2900CB120D91120DAD120B4F1208CB120C0EF9
:020A390080EC4F
:100B4F00E519700AE51A7006E51C64016014E519D1
:100B5F00B40108E51A7004E5267007209325E51AFD
:100B6F007021751A01209303751B01120534120EA3
:100B7F0001120CD6C2907FD07E07120D5312095668
:040B8F00E4F5262241
:100C0E00E51A6401702CE51C7028309325E51B70E5
:100C1E00077F887E13120D53120674120E08120CE3
:100C2E00AA7FD07E07120D53120956D290E4F51A00
:050C3E00F51BC290222D
:1008CB00D2A720A7127FF47E01120DE620A70D758B
:1008DB001901E4F51C8005E4F519C290E5196401D2
:1008EB007066E51A700C120534120E01120CD675D7
:1008FB001A01120BD6E51964017029B2B7B2B57F94
:10090B00F47E01120D53B2B520A7127FF47E0112B3
:10091B000DE620A7E0751901E4F51C80D8E4F51964
:10092B00C29080D1D2B77FB87E0B120D53E51AB4AB
:10093B000113120674120E08120CAAE4F51A7FD0DA
:0B094B007E07120D53020956D2B7229E
:100D9100D2A6E4F51C20A6137FF47E01120DE620F5
:0C0DA100A609751C0130A6FDE4F518221F
:100DAD00D2912091167FF47E01120DE620910C75E3
:0C0DBD001C01752601E4F5183091FD22A0
:100956007BFF7A007938120D7E120D717F407E9CE6
:10096600120DE67BFF7A007962120D7E7F407E9C37
:10097600120DE67BFF7A0079C6120D7E7FA07E0FF0
:10098600120DE67BFF7A0079E0120D7E7FB87E0BB2
:10099600120DE67BFF7A0079FC120D7E7FB87E0B86
:1009A600120DE67BFF7A01791A120D7E7FB87E0B57
:1009B600120DE67BFF7A01793D120D7E7FB87E0B24
:0309C600020DE639
:100534007BFF7A007938120D7E120D717F407E9C0C
:10054400120DE67BFF7A017961120D7E120DE27BBA
:10055400FF7A017979120D7E120DE2120D4F7BFFA5
:100564007A01799A120D7E120DE27BFF7A0179B03D
:10057400120D7E120DE27BFF7A0179C8120D7E12F4
:100584000DE2120D4F120DE27BFF7A0179EA120D92
:100594007E120DE27BFF7A0179FF120D7E120DE2CD
:1005A4007BFF7A027914120D7E120DE27BFF7A0230
:1005B4007929120D7E120DE27BFF7A02793E120D2B
:1005C4007E120DE27BFF7A0179C8120D7E120DE2D4
:1005D400120D4F120DE27BFF7A027956120D7E1234
:1005E4000DE27BFF7A02796B120D7E120DE27BFF26
:1005F4007A027982120D7E120DE27BFF7A027998DB
:10060400120D7E120DE27BFF7A0279AE120D7E127C
:100614000DE27BFF7A0279C6120D7E120DE2120DF5
:100624004F120DE27BFF7A0279E9120D7E120DE280
:100634007BFF7A037900120D7E120DE27BFF7A03B1
:100644007917120D7E120DE27BFF7A03792E120DBB
:100654007E120DE27BFF7A037945120D7E120DE2C4
:100664007BFF7A03795E120D7E7F207E03020DE606
:100CD6007BFF7A007938120D7E7E9C120D737F4061
:100CE6007E9C120DE67BFF7A037982120D7E120D31
:0A0CF600E27BFF7A037945020D7ED0
:100674007BFF7A007938120D7E120D717F407E9CCB
:10068400120DE67BFF7A017961120D7E120DE27B79
:10069400FF7A0379A8120D7E120DE2120D4F7BFF33
:1006A4007A0379C9120D7E120DE27BFF7A0379DE9B
:1006B400120D7E120DE27BFF7A0379F3120D7E1286
:1006C4000DE27BFF7A047908120D7E120DE27BFFA6
:1006D4007A0179B0120D7E120DE27BFF7A04791D46
:1006E400120D7E120DE2120D4F7BFF7A0179EA1290
:1006F4000D7E120DE27BFF7A0179FF120D7E120D41
:10070400E27BFF7A027914120D7E120DE27BFF7AEE
:1007140004793F120D7E120DE27BFF7A02793E12BC
:100724000D7E120DE27BFF7A04791D120D7E120DEF
:10073400E2120D4F7BFF7A027956120D7E120DE202
:100744007BFF7A02796B120D7E120DE27BFF7A0237
:100754007982120D7E120DE27BFF7A047954120D18
:100764007E120DE27BFF7A0279AE120D7E120DE24B
:100774007BFF7A04796A120D7E120DE2120D4F7B13
:10078400FF7A04798D120D7E120DE27BFF7A0379D4
:1007940045120D7E120DE27BFF7A0479A5120D7EBF
:0707A4007F207E03020DE639
:100CAA007BFF7A007938120D7E7F207E4E120D75F9
:100CBA007F207E4E120DE67BFF7A0479C9120D7EE3
:0C0CCA00120DE27BFF7A037945020D7EDB
:100BD6007BFF7A007938120D7E7F207E4E120D75CE
:100BE6007F207E4E120DE67BFF7A0479EF120D7E92
:100BF600120DE27BFF7A05790E120D7E120DE27B55
:080C0600FF7A037945020D7E1F
:100D280053877F759850438E40538EFE53890F43E7
:100D38008920758BFD758DFDC2ABD28ED29CD2AC4D
:070D4800D2AFC299C298224C
:03002300020A9B33
:100A9B00C0E0C0F0C083C082C0D075D000C000C021
:0D0AAB0001C002C003C004C005C006C007A2
:100AB800309821C298859941E541B40A028005E53C
:100AC80041B40D0B7BFF7A057933120D7E8005AF9B
:040AD80041120DF1C9
:100ADC00D007D006D005D004D003D002D001D0006E
:0B0AEC00D0D0D082D083D0F0D0E03218
:080DF1008F993099FDC299228F
:0D0D71007E1F7F40120DE67BFF7A00794265
:100D7E00120C43FF600C120DF1740129F9E43AFADA
:030D8E0080EE22D2
:040D4F007FBC7E02E5
:100D5300EF1FAA0670011E4A6013E4FCFDC3ED9465
:0D0D63007DEC940050EA0DBD00010C80F005
:010D70002260
:080DF900F1F2F4F8F8F4F2F154
:0F0C8A0002160000020B0000020901C20108005F
:1007AB00E5087042C3E50C950AE50B9509503743F4
:1007BB00A00F0517E517AE16700205161424F9F5F0
:1007CB0082740D3EF583E49352A0C3E5179404E5C0
:1007DB0016648094804005E4F516F517050CE50CBE
:1007EB007002050B8040C3E50C950AE50B9509508B
:1007FB003543A00F0517E517AE1670020516142426
:10080B00FDF582740D3EF583E49352A0C3E5179476
:10081B0004E516648094804005E4F516F517050C85
:10082B00E50C7002050BC3E50C950AE50B95094029
:04083B0002C2CA2209
:100003008D087E007BFF7A0779AB120D00E4F50BB8
:03001300F50C22C7
:080C99000232000002270000F6
:03002B00020AF7CF
:100AF700C0E0C0F0C083C082C0D075D000C000C0C5
:0D0B070001C002C003C004C005C006C00745
:100B1400C2CF0528E52870020527C39533E527953C
:100B240032400D752700752800AA2DA92E120C72CB
:100B3400D007D006D005D004D003D002D001D00015
:0B0B4400D0D0D082D083D0F0D0E032BF
:100D00008E328F338B2C8A2D892EE4F5C9F5C87568
:100D1000CC6675CDFC75CA6675CBFCD2CAD2AFD293
:080D2000ADD2CAD2BDC2CF2240
:080CA100023F000002340000D4
:03001B00020A3B9B
:100A3B00C0E0C0F0C083C082C0D075D000C000C081
:0D0A4B0001C002C003C004C005C006C00702
:100A5800C28E758DFC758B6BD28E0535E5357002AF
:100A68000534C39540E534953F400D753400753520
:080A780000AA3AA93B120C721E
:100A8000D007D006D005D004D003D002D001D000CA
:0B0A9000D0D0D082D083D0F0D0E03274
:100B93008E3F8F408B398A3A893B53890F438910A3
:100BA300758DFC758B6BD2AFD2ABD28EC3E54094FF
:100BB30001E53F648094804017AE3FAF40EE33952C
:100BC300E0FDFCE47B607AEAF9F8C3120C5C5002A6
:030BD300C28E22AD
:10084B000209C9E493A3F8E493A34003F68001F2F1
:10085B0008DFF48029E493A3F85407240CC8C333AE
:10086B00C4540F4420C8834004F456800146F6DF7D
:10087B00E4800B0102040810204080900C78E47E89
:10088B00019360BCA3FF543F30E509541FFEE49372
:10089B00A360010ECF54C025E060A840B8E493A339
:1008AB00FAE493A3F8E493A3C8C582C8CAC583CA64
:1008BB00F0A3C8C582C8CAC583CADFE9DEE780BE1C
:010CA900004A
:100C4300BB010689828A83E0225002E722BBFE02AF
:090C5300E32289828A83E49322E2
:100C5C00EB9FF5F0EA9E42F0E99D42F0EC6480C80F
:060C6C0064809845F022AF
:060C72008A838982E4730D
:00000001FF
