:020003001D815D
:02000500000EEB
:020007001E37A2
:020009001E5D7A
:101D8100C2AFD2A8D288121D601217B9D2AF759016
:101D9100FE7F011213037F03121303120E4980FB0E
:10000E00E524640345237005121E6C80F31213EB76
:02001E0080EE72
:101E3700E524640345237005121E6C80F37DFF7F44
:061E47000212138C80EA78
:0F1E5D007DFA7F0212138C121B0D12171680F1E3
:081BBE00027300000275000033
:101E4D0053890F758B20758DD1C28FD28ED2AB2257
:101D600043878075985053890F438920758BF3758D
:101D70008DF3C2ABD28ED29CD2ACD2AFC299C298F4
:011D80002240
:0C1E7900C2AC8F993099FDC299D2AC2206
:101CF1008B1B8A1C891DAB1BAA1CA91D120D2460FC
:101D010013051DE51D7002051C14F9120D24FF12A7
:051D11001E7980E222B2
:0300230002185967
:10185900C0E0C083C082C0D075D000C000C001C044
:1018690002C003C00730986A85995FE574457360C3
:1018790018C3E57D9404E57C9400500D057DE57D54
:101889007002057C2477F8A65FE57445736029E545
:101899007D6404457C7021F573F574E57B6405600E
:1018A90008757500757601800F7575007576007B72
:1018B900007A007977121CF1E55F645A7010F573AC
:1018C900757401F57CF57D7477257DF8A65FC2985E
:1018D9008002C299D007D003D002D001D000D0D065
:0718E900D082D083D0E03271
:100026002020004B4D004D696C2062696C6C696E36
:10003600672073797374656D002D2D2D2D2D2D2D53
:100046002D2D2D2D2D2D2D2D2D2D2D2D2D0053709E
:100056006565643A004D2F730044697374616E637D
:10006600653A004D0053746F705F005075736820D9
:100076004B322053746172740050757368204B3391
:1000860020436C6561720020202020202020202043
:100096002020202020200052756E6E696E67004B6E
:1000A600322053572053706565640020202020209D
:1000B60020202020202020005F0050757368204BF0
:1000C600332053746F700044697374616E63650006
:1000D600536574207A65726F210050757368204BE2
:1000E6003220636F6E74696E7565002020202020B3
:1000F60020202020202020202020200057656C630F
:100106006F6D6520546F2055736500475545542D16
:100116002D2D2D4C51530045564F4C5554494F4E9D
:100126002D5445414D0050757368204B3220546F55
:1001360020436F6E74696E75650020202020202094
:100146002020202020202020202020202000000009
:100156007C40404040FF40404040FC000000007CA6
:1001660040404040407F4040404040FC000000008E
:10017600000000000000002F00000000070007003C
:1001860000147F147F1400242A7F2A120062640858
:1001960013230036495522500000050300000000D5
:1001A6001C224100000041221C000014083E0814D5
:1001B6000008083E0808000000A0600000080808C3
:1001C6000808000060600000002010080402003EDD
:1001D6005149453E0000427F400000426151494678
:1001E600002141454B31001814127F100027454568
:1001F6004539003C4A49493000017109050300367A
:100206004949493600064949291E0000363600008C
:100216000000563600000008142241000014141491
:10022600141400004122140800020151090600328C
:100236004959513E007C1211127C007F49494936CA
:10024600003E41414122007F4141221C007F494935
:100256004941007F09090901003E4149497A007F69
:100266000808087F0000417F4100002040413F010F
:10027600007F08142241007F40404040007F020C6E
:10028600027F007F0408107F003E4141413E007F0F
:1002960009090906003E4151215E007F09192946D8
:1002A6000046494949310001017F0101003F4040B4
:1002B600403F001F2040201F003F4038403F006362
:1002C6001408146300070870080700615149454384
:1002D60000007F41410000552A552A550000414142
:1002E6007F0000040201020400404040404000003C
:1002F60001020400002054545478007F48444438D6
:1003060000384444442000384444487F003854545C
:10031600541800087E0901020018A4A4A47C007FDA
:10032600080404780000447D4000004080847D007D
:10033600007F102844000000417F4000007C041824
:100346000478007C0804047800384444443800FCEF
:10035600242424180018242418FC007C080404080B
:1003660000485454542000043F444020003C404080
:10037600207C001C2040201C003C4030403C0044B7
:1003860028102844001CA0A0A07C004464544C44BF
:1003960014141414141400000000000000000000DF
:1003A600000000000000000000F80000000000004F
:1003B60000333000000000100C06100C0600000090
:1003C60000000000000040C07840C0784000043FB4
:1003D60004043F040400007088FC08300000001884
:1003E60020FF211E0000F008F000E01800000021A8
:1003F6001C031E211E0000F00888700000001E214C
:1004060023241927211010160E00000000000000FA
:10041600000000000000000000E0180402000000D8
:1004260000071820400000020418E0000000004009
:10043600201807000000404080F080404000020283
:10044600010F01020200000000F00000000001019F
:10045600011F01010100000000000000000080B043
:100466007000000000000000000000000000000115
:100476000101010101010000000000000000003040
:1004860030000000000000000000806018040060DA
:1004960018060100000000E010080810E000000F38
:1004A600102020100F00001010F80000000000209F
:1004B600203F2020000000700808088870000030E7
:1004C600282422213000003008888848300000188F
:1004D600202020110E000000C02010F800000007A8
:1004E6000424243F240000F808888808080000191E
:1004F600212020110E0000E0108888180000000F4F
:10050600112020110E0000380808C8380800000025
:10051600003F000000000070880808887000001C7A
:10052600222121221C0000E010080810E000000033
:10053600312222110F00000000C0C00000000000A0
:1005460000303000000000000080000000000000C5
:1005560080600000000000008040201008000001BC
:10056600020408102000404040404040400004047F
:100576000404040404000008102040800000002049
:10058600100804020100007048080808F000000086
:10059600003036010000C030C828E810E000071817
:1005A600272423140B000000C038E0000000203C84
:1005B60023020227382008F8888888700000203F28
:1005C600202020110E00C03008080808380007183F
:1005D60020202010080008F808080810E000203F36
:1005E600202020100F0008F88888E8081000203F17
:1005F60020202320180008F88888E8081000203FEB
:10060600200003000000C030080808380000071862
:100616002020221E020008F808000008F808203FE3
:10062600210101213F20000808F8080800000020E9
:10063600203F2020000000000808F8080800C080BD
:1006460080807F00000008F888C028180800203F36
:1006560020012638200008F8080000000000203F8E
:1006660020202020300008F8F800F8F80800203F85
:10067600003F003F200008F830C00008F808203F7F
:10068600200007183F00E01008080810E0000F10CF
:10069600202020100F0008F808080808F000203F66
:1006A600210101010000E01008080810E0000F1801
:1006B600242438504F0008F8888888887000203F26
:1006C6002000030C30200070880808083800003825
:1006D600202121221C00180808F80808180000002C
:1006E600203F2000000008F808000008F808001F56
:1006F600202020201F000878880000C83808000045
:1007060007380E010000F80800F80008F800033C5E
:100716000700073C03000818688080681808203026
:100726002C03032C30200838C800C8380800000005
:10073600203F2000000010080808C83808002038AC
:10074600262120201800000000FE02020200000000
:10075600007F40404000000C30C000000000000058
:1007660000010638C00000020202FE000000004040
:1007760040407F0000000000040202020400000066
:100786000000000000000000000000000000808063
:10079600808080808080000202040000000000004B
:1007A600000000000000000080808080000000192A
:1007B600242222223F2008F8008080000000003F0B
:1007C600112020110E000000008080800000000E25
:1007D600112020201100000000808088F800000E03
:1007E600112020103F200000808080800000001F24
:1007F600222222221300008080F088888818002098
:10080600203F202000000000808080808000006B58
:1008160094949493600008F8008080800000203F44
:10082600210000203F200080989800000000002052
:10083600203F20200000000000809898000000C0A3
:100846008080807F000008F8000080808000203FC4
:1008560024022D302000000808F8000000000020C7
:10086600203F202000008080808080808000203F04
:1008760020003F20003F8080008080800000203FD5
:10088600210000203F200000808080800000001FA3
:10089600202020201F00808000808000000080FF34
:1008A600A12020110E000000008080808000000E34
:1008B600112020A0FF808080800080808000202082
:1008C6003F212000010000008080808080000033EE
:1008D600242424241900008080E080800000000089
:1008E600001F202000008080000000808000001F84
:1008F600202020103F208080800000808080000122
:100906000E300806010080800080008080800F3055
:100916000C030C300F0000808000808080000020D7
:10092600312E0E3120008080800000808080808102
:100936008E70180601000080808080808000002173
:10094600302C2221300000000000807C02020000D2
:100956000000003F404000000000FF0000000000D3
:100966000000FF0000000002027C80000000004042
:10097600403F0000000000060101020204040000DE
:060986000000000000006B
:101BC6000223000602250000023300000235000051
:101BD60002210000023700000231000004277F3F87
:021BE6001F0FCF
:101DC100D3EF9400EE940040147D6E7C00ED1D7005
:0D1DD100011CED4C70F7EF1F70E61E80E363
:011DDE0022E2
:091E8F00D280D281C281C28022FE
:091E9800C280C281D280D28122F5
:071C4300AD07121E8F7F7830
:101C4A00E4FEEEC39408748094805015EF30E704E4
:101C5A00D2818002C281D280C280EF25E0FF0E804D
:071C6A00E1D281D280C280AB
:011C71002250
:0D1DFD0074542BF58274013AF583E493FFD2
:101E0A00121C437F40121C4AAF05121C4A021E983C
:0D1E1A0024B0FF121E277F01121E277F102B
:101E2700121C43E4FF121C4AAF05121C4A021E98FB
:101DDF00AC07ED24B0FF121E27EC54F0C4540F448F
:0E1DEF0010FF121E27EC540F4401FF021E27A6
:021C9F00AC0790
:101CA100E4FBEBC3940874809480501BEB121E1A62
:101CB100E4FAEAC39480748094805008AF04121E41
:071CC1000A0A80EE0B80DB34
:011CC80022F9
:101CC900E4FCECC3940874809480501BEC121E1A37
:101CD900E4FBEBC39480748094805008E4FF121EE7
:071CE9000A0B80EE0C80DB0A
:011CF00022D1
:1017B9007FF47E01121DC17FAE121E27E4FF121EA7
:1017C900227F40121E277F81121E277FCF121E27DC
:1017D9007FA0121E277FC0121E277FA6121E277FF9
:1017E900A8121E277F3F121E277FD3121E27E4FF50
:1017F900121E277FD5121E277F80121E277FD9121E
:101809001E277FF1121E277FDA121E277F12121E52
:10181900277FDB121E277F40121E277F20121E27DB
:101829007F02121E277F8D121E277F14121E277F0B
:10183900A4121E277FA6121E277FAF121E27E4FFC0
:10184900121C9FE4FDFF121DDF7FE87E03021DC10C
:0A1A07007BFF7A00798D7C007F28B8
:0C1A11008F0E8C0F8D108B118A12891320
:101A1D00E4F514FCF515AB11AA12A9138515827501
:101A2D008300120D3D605524E0F514D3E50E947E30
:101A3D0074809480400BE4F50E0510E510700205DE
:101A4D000FAD10AF0E121DDFE4FCECC394067480D5
:101A5D009480501E75F006E514A42474F582E5F00B
:101A6D003401F583E5822CF582E43583121E050CD5
:0C1A7D0080D87406250EF50E0515809A21
:011A8900223A
:0C15A6007A0079E07BFF7D057C00E4FF0B
:0C15B2008F0E8C0F8D108B118A12891384
:1015BE00E4F514FCF515AB11AA12A9138515827565
:1015CE008300120D3D700302166124E0F514D3E57D
:1015DE000E947874809480400BE4F50E0510E5109F
:1015EE007002050FAD10AF0E121DDFE4FCECC394BC
:1015FE000874809480501E75F010E514A42CF582AA
:10160E00E435F0F583E582249CF582E583340312FC
:10161E001E050C80D8E51004FDAF0E121DDFE4FC94
:10162E00ECC3940874809480501E75F010E514A4D9
:10163E002CF582E435F0F583E58224A4F582E5836A
:10164E003403121E050C80D87408250EF50E0515F0
:03165E000215C4AE
:011661002266
:061B68008C1E8D1FA90771
:101B6E00E4FCAE02EB7805C333CE33CED8F9FBAA34
:101B7E0006AF01AD1F121DDFE4FCECC394107480A0
:101B8E009480500B121DFD0BBB00010A0C80EBAFB5
:101B9E0001E51F04FD121DDFE4FCECC394107480FC
:0F1BAE009480500B121DFD0BBB00010A0C80EB45
:011BBD002205
:0A1A8A008F668C678D688A698B6A8D
:101A9400E4F570F571AE6BAF6CFC7D08120E05EDCC
:101AA4004CAE6BAF6C700AFC7D08120E058F728011
:101AB4000B7C007D08120E05EF04F572856872C375
:101AC400E572956CE56B6480F8748098503AAD7259
:101AD400AF66121DDFAC66ECC3956AE5696480F8F5
:101AE400748098501FAB6DAA6EA96F0571E571AE35
:101AF400707002057014F5828E83120D3DFF121E64
:081B04000A0C80D3057280B7C2
:011B0C0022B6
:101C7200E5744573600875210075221E8005E4F540
:101C820021F522E522452160137D327F0212138C59
:0D1C9200B290E522152270EB152180E722AB
:0E1662008F118E108D0F8C0E8B128A1389142F
:10167000120CA38E158F16E4FFFE7DC87C42AB11C1
:10168000AA10A90FA80E120A84120CA3AB07AA066F
:10169000AE15AF167C007D64120D9EC3EB9FF5184E
:1016A000EA9EF517AE15AF167D0A120E05EF24302F
:1016B000AB12AA13A914120D6AAE15AF167C007DE9
:1016C0000A120E05ED2430AB12AA13A914900001E2
:1016D000120D7C900002742E120D7CAE17AF187C98
:1016E000007D0A120E05EF2430AB12AA13A9149044
:1016F0000003120D7CAE17AF187C007D0A120E0598
:10170000ED2430AB12AA13A914900004120D7C90A2
:061710000005E4020D7C5F
:0E14DF00AF5AAE59AD58AC577B007A00793940
:0E14ED008F118E108D0F8C0E8B128A138914A6
:1014FB00120CA38E158F16E4FFFE7DC87C42AB1138
:10150B00AA10A90FA80E120A84120CA3AB07AA06E5
:10151B00AE15AF167C007D64120D9EC3EB9FF518C4
:10152B00EA9EF517AE15AF16120E05EF2430AB126F
:10153B00AA13A914120D6AAE15AF167C007D0A1200
:10154B000E057C007D0A120E05ED2430AB12AA139A
:10155B00A914900001120D7CAE15AF167C007D0A0C
:10156B00120E05ED2430AB12AA13A914900002122F
:10157B000D7C900003742E120D7CAE17AF187C00FF
:10158B007D0A120E05EF2430AB12AA13A91490009A
:0B159B0004120D7C900005E4020D7CA2
:1013EB00E52360030214DEE52424FD606614606EC1
:1013FB0024FE70030214A7240560030214DE75900B
:10140B00AA7DC87F0212138C7D647F0212138C7D20
:10141B00C87F0212138C7D647F0212138C7590555A
:10142B007DC87F0212138C7D647F0212138C7DC8E2
:10143B007F0212138C7D647F0212138CE5656402AC
:10144B004564600BE5656403456460030214DE4389
:10145B00A0F02274272565F8E655A0F59022E4F557
:10146B00907DC87F0212138C7DC87F0212138C7D76
:10147B00C87F0212138C7DC87F0212138C7590FFEC
:10148B007DC87F0212138C7DC87F0212138C7DC81E
:10149B007F0212138C7DC87F0202138C7590FEE4C1
:1014AB00F531F532E59025E0FFE590C413131354A5
:1014BB00014FF5907D4B7F0212138C7D4B7F0212F7
:1014CB00138C0532E53270020531C39408E5319473
:0414DB000040D122DA
:100E4900E4FFFE7D7A7C44AB5EAA5DA95CA85B12D7
:100E59000C2A4028E53445337022F5337534017B7B
:100E6900FF7A0079267D04FC7F701215B27BFF7A28
:100E79000079297D057C007F70121A11E53445330C
:100E8900700E855E5A855D59855C58855B57801A59
:100E9900E4FBFA797A7844AF5EAE5DAD5CAC5B1287
:100EA9000B8D8F5A8E598D588C57E523600302118B
:100EB90090E52424FE7003020FE714700302101D4D
:100EC9001470030210A11470030210F014700302CD
:100ED9001126240560030211908523258524267B8C
:100EE900007A00792B7F007E007D007C001216625B
:100EF9001214DF7BFF7A00792CE4FDFC7F07121ABC
:100F0900117BFF7A00793F7D017C007F01121A1164
:100F19007BFF7A0079547D021215AE7B007A007945
:100F29002B7D027C007F301215B27BFF7A00795B42
:100F39007D027C007F581215B27BFF7A00795F7DB4
:100F4900041215AE7B007A0079397D047C007F4854
:100F59001215B2E534453370107BFF7A0079697D4B
:100F690004FC7F701215B28029E536453570147B73
:100F7900FF7A0079267D04FC7F701215B275350061
:100F89007536017BFF7A0079297D057C007F701217
:100F99001A117BFF7A00796B7D061215AE7BFF7AF9
:100FA9000079717D06121A0D7BFF7A00797F7D0722
:100FB900121A0D7D197F0212138C7D06121A077BF6
:100FC900FF7A0079717D06121A0D7D07121A077BC7
:100FD900FF7A00797F7D077C007F2802118D8523A8
:100FE900258524267BFF7A00799D7D061215AE7B27
:100FF900FF7A0079A57D067C007F38121A117BFFE4
:101009007A0079B17D077C007F38121A11752300A7
:1010190075240322E4F535F536852325852426AF85
:1010290063AE62AD61AC60FB7A00792B1216621275
:1010390014DF7B007A00792B7D027C007F3012154A
:10104900B27B007A0079397D047C007F481215B2A1
:10105900E53875F006A42438FF7BFF7A0079BE7D58
:10106900077C00121A110538E53870020537640C3F
:1010790045376003021190F537F5387BFF7A00791F
:10108900B17D07FC7F38121A117BFF7A0079C07D88
:10109900077C007F3802118D8523258524267BFF57
:1010A9007A0079CD7D017C007F201215B27BFF7A11
:1010B9000079D67D037C007F1C1215B21215A67A21
:1010C9000079F11215AA1215A6E4F563F562F56126
:1010D900F560F55EF55DF55CF55BF55AF559F55882
:1010E900F557F533F53422121CC97D787F021213A6
:1010F9008CE5256003021190E52614601224FB603B
:1011090015240260030211907523007524062275C7
:1011190023007524042275230075240122852325C3
:101129008524267BFF7A017902E4FDFC7F081215EC
:10113900B27BFF7A00792C7D027C007F07121A119D
:101149007BFF7A0179117D031215AE7BFF7A017954
:101159001D7D057C007F081215B27BFF7A01792C71
:101169007D077C007F0A121A117BFF7A0179407D85
:10117900077C007F0A121A117BFF7A01792C7D07FF
:081189007C007F0A121A1122FA
:101BE800044500000000023F0000024F00000249C7
:101BF8000000025500000441000000000451F1F209
:081C0800F4F8044BF8F4F2F1CA
:101DA100E4FDFCC3ED9FEC9E5015E4FBFA0BBB0078
:0F1DB100010AEB64704A70F50DBD00010C80E46F
:011DC0002200
:101D1600E4F51AC3E51A9404748094805016121CD4
:101D2600117451251AF8E6F5A0AD407F0212138C06
:041D3600051A80DF2B
:011D3A002286
:101D3B00E4F51AC3E51A9404748094805016121CAF
:101D4B0011744B251AF8E6F5A0AD407F0212138CE7
:041D5B00051A80DF06
:011D5F002261
:0A1E8500AFA0EF54F0F5A0F5A02285
:101C110012197C0550E5507002054FB4E80AE54FF2
:101C2100B40305E4F54FF550AE4FAF507C007D0D88
:101C3100120DB0ED4C700A74272565F8E655A0F534
:021C41009022EF
:10197C00AB5EAA5DA95CA85BC000C001C002C0033D
:10198C00AF44AE43AD42AC41AB63AA62A961A8605F
:10199C00120A84D003D002D001D0001209938F5EBA
:1019AC008E5D8D5C8C5B30A722AF48AE47AD46ACEC
:1019BC0045AB44AA43A942A8411209938F488E47CC
:1019CC008D468C45754900754A012220A72CE54AA5
:1019DC0045496026AB48AA47A946A845E4FFFEFD49
:1019EC007C40120B8D8F638E628D618C60E4F549A7
:0B19FC00F54AF548F547F546F5452291
:101B0D00E5647056E56514601D14602B146039246E
:101B1D00037047753F007540087544BC7543747577
:101B2D00421375413C22753F0075400475447C7528
:101B3D0043F27542B08020753F0075400275442E0A
:101B4D00754356754254800F753F007540017544BD
:0B1B5D005F75432975424B75413B2228
:0D1E6C00E55645557003021D16121D3B2260
:1017160020A4557D0A7F0212138C20A44BE5246475
:101726000145237007F5237524028039E5246404F6
:10173600452370028008E524640645237007F523D7
:101746007524058020E5246403452370180565E5A6
:101756006570020564D39403E56464809480400553
:10176600E4F564F56530A4FD20A5297D0A7F021203
:10177600138C20A51FE524640345237007F5237504
:101786002401800DE524640145237005F5237524A5
:101796000530A5FD20A61B7D0A7F0212138C20A60C
:1017A60011E5246403452370066356FF6355FF3035
:0317B600A6FD226B
:03000B0002119649
:10119100C2AF80FE3212119585D00B75D008AAE03E
:1011A100C28CE58A241FF58AE58C34FCF58CD28C3F
:1011B100EC2487F8E6BC030274FFC39581B41400E4
:1011C10040CE7904787E16E608700BC2AFE630E1B6
:1011D100034418F6D2AF08D9EDEA8BD030000122D2
:1011E100D50DFCC0E0C0D0C0F0C083C082C000C03B
:1011F10001C002C003C004C005C006C007E50C233E
:10120100247FF87440C2AF46F6D2AFD200E50CFF9E
:1012110023247FF80F0808BF04047F00787FE6309D
:10122100E4F200E50CC39F5020050C7486250CF8F0
:10123100E6FDA68108E6AE0CBE030274FFCDF8E818
:101241006D60E008E6C0E080F6E50CD39F4027E53D
:101251000C2487F8E6AE0CBE030274FFFD18E6CD40
:10126100F8E5816D6006D0E0F61880F5E50C24867E
:10127100C8F6150C80D3750D03E50C23247FF87F88
:1012810004C2AFE610E61E30E00310E20C7F00302E
:05129100E10730E30459
:101296007F0854F4547CC6D2AF54804207C2002261
:1012A600F6D2AFD007D006D005D004D003D002D0F6
:1012B60001D000D082D083D0F0D0D0D0E0C20022BE
:1012C6007886A68174036006FF0876FFDFFB7F043D
:1012D600E4787EF608F608DFFA787F763090000329
:1012E600740193C0E0E493C0E0750D034389017572
:0D12F6008A18758CFCD28CD2AFD2A92203CD
:10130300EFD3940340037FFF22747F2F2FF8E6204F
:10131300E5F4C2AFE64430F6D2AFAE0CEEC39F5055
:10132300210E74862EF8E6F908E618BE030274FF50
:10133300FDED69600909E71919F7090980F3161624
:1013430080DAEED39F400405810581EED39F4022CE
:1013530074862EF808E6F9EEB50C02A98118060684
:10136300E6FDED6960091919E70909F71980F31E0C
:1013730080D9EF2486F8E604F8EF2F049000039356
:09138300F608EF2F93F67F00221B
:10138C008FF0E4FFFEE50C23247EF8C2A930F70DA4
:10139C007F08E6600B2DF660325030800730F10686
:1013AC00EDF660277E020830F010C2AFE610E7259C
:1013BC000E30E20CD2AF7F048014C2AFE610E715FA
:1013CC0054EC4EF6D2AFD2A902120C7F0808EF44AF
:0F13DC0083F4C2AF56C6D2AFD2A954804FFF22BE
:10098C00020D0FE86480F8E933E83360110460F07D
:10099C00ED33EC337009E8FCE9FDEAFEEBFF2204D1
:1009AC0060DED3EB9FEA9EE99DE8C2E78CF0C2F7CC
:1009BC0095F0400CE8CCF8E9CDF9EACEFAEBCFFB98
:1009CC00120CDA85D0F05804700320D5B3E804700B
:1009DC00075002B2D5020D1992D5EC0460F7E4CCA5
:1009EC00C0E0C398F8603B94186008400DD0E0FB61
:1009FC00020CF1E4FBFAC9FC8028E830E406E4C9F7
:100A0C00FBE4CAFCE830E305E4C9CACBFCE85407B4
:100A1C006010F8C3E913F9EA13FAEB13FBEC13FCBF
:100A2C00D8F130F52FC3E49CFCEF9BFFEE9AFEED62
:100A3C0099FDD0E0FBEF4E4D4C701222DB03020D02
:100A4C0016EC2CFCEF33FFEE33FEED33FDED30E70F
:100A5C00EB020CF1EF2BFFEE3AFEED39FDD0E0FB93
:100A6C0050130BBB0003020D19ED13FDEE13FEEF3B
:080A7C0013FFEC13FC020CF166
:100A8400EC4D6011E8497017ED33EC3304600DE46C
:100A9400FCFFFEFD22E933E8330470F8020D0F1267
:100AA4000CDA58046009E4CC248150062850090269
:100AB4000D19284003020D16C0E0EB4A7044B980BA
:100AC40006D0E0FB020D05EF4E701CBD8008EBFF65
:100AD400EAFEE9FD80EBE98DF0A4FEE5F0020B6D82
:100AE400E9CDF9EAFEEBFFEF89F0A4FCE5F0CE894D
:100AF400F0A42EFFE435F0CD89F0A42DFEE435F00A
:100B04008067EF4E7005BD80D780C3EF8BF0A4AC37
:100B1400F0EE8BF0A42CFCE435F0F8EF8AF0A42C72
:100B2400E5F038FCE433CB8DF0A42CFCE5F03BF885
:100B3400EE8AF0A42CFCE5F038F8E433CF89F0A475
:100B44002CFCE5F038CF3400CE89F0A42FFFE5F07B
:100B54003EFEE433C98DF0A42EFEE5F039CD8AF0D3
:100B6400A42FFFE5F03EFEE43DFD33D0E0FB50074B
:100B74000BBB000F020D19EC2CFCEF33FFEE33FE20
:060B8400ED33FD020CF14F
:100B8A00020D19EC5D046005E859047003020D0FAB
:100B9A00120CDA580460F6EC4860F2EC7004FDFEC0
:100BAA00FF22C860DB2481C85009C398600250063E
:100BBA00020D169850CAF582E9294B4A7005AB8294
:100BCA00020D0575F0007C1A7880C3EF9BEE9AED52
:100BDA0099400DC3EF9BFFEE9AFEED99FDE842F0B6
:100BEA00DC23ACF0D0E0FFD0E0FED0E0FDAB822009
:100BFA00E7101BEB60BAEC2CFCEF33FFEE33FEED93
:100C0A0033FD020CF1E803F830E705C0F075F00097
:100C1A00EF2FFFEE33FEED33FD40B830E7C280AA76
:100C2A0074F8CC6480CCC86480C8F58204604FC371
:100C3A00EB9FF5F0EA9E42F0E99D42F0E89C45F010
:100C4A00603C501DE5825FFFE582D313CB5BCBF49A
:100C5A002B5582FB50280ABA002409B900200880C3
:100C6A001DE5825BFBE582D313CF5FCFF4C3132F5D
:100C7A005582FF50090EBE00050DBD00010CC3EBE5
:100C8A009FF5F0EA9E42F0E99D42F0E89C45F0604B
:090C9A0007CC4820E701B3EC226D
:100CA300EDD2E7CD33EC3392D524814006E4FFFE49
:100CB300FDFC22FCE4CFCECDCC24E0501174FF80A8
:100CC300EDC3CC13CCCD13CDCE13CECF13CF047045
:070CD300F030D5DE020E3BFC
:100CDA00E9D2E7C933E833F892D5EDD2E7CD33EC60
:070CEA0033FC5002B2D522D9
:100CF100EC30E7100FBF000C0EBE00080DBD000464
:100D01000BEB6014A2D5EB13FCED92E7FD2274FF0F
:100D1100FCFDFEFF22E480F8A2D574FF13FC7D8068
:030D2100E480EF7C
:030000000218F0F3
:0C18F000787FE4F6D8FD75818902193775
:100D2400BB010689828A83E0225002E722BBFE02CD
:090D3400E32289828A83E4932200
:100D3D00BB010CE58229F582E5833AF583E022506B
:100D4D0006E92582F8E622BBFE06E92582F8E222B5
:0D0D5D00E58229F582E5833AF583E49322CF
:100D6A00BB010689828A83F0225002F722BBFE0168
:020D7A00F32262
:100D7C00F8BB010DE58229F582E5833AF583E8F0AD
:100D8C00225006E92582C8F622BBFE05E92582C859
:020D9C00F22241
:100D9E00EF8DF0A4A8F0CF8CF0A428CE8DF0A42E69
:020DAE00FE2223
:100DB000BC000BBE0029EF8DF084FFADF022E4CC27
:100DC000F875F008EF2FFFEE33FEEC33FCEE9DECF0
:100DD000984005FCEE9DFE0FD5F0E9E4CEFD22ED36
:100DE000F8F5F0EE8420D21CFEADF075F008EF2F80
:100DF000FFED33FD4007985006D5F0F222C398FD71
:050E00000FD5F0EA220D
:100E0500C2D5EC30E709B2D5E4C39DFDE49CFCEE08
:100E150030E715B2D5E4C39FFFE49EFE120DB0C3C3
:100E2500E49DFDE49CFC8003120DB030D507C3E4BE
:060E35009FFFE49EFE2277
:0E0E3B00C3E49FFFE49EFEE49DFDE49CFC22C8
:1018FC000212C6E493A3F8E493A34003F68001F22A
:10190C0008DFF48029E493A3F85407240CC8C333EC
:10191C00C4540F4420C8834004F456800146F6DFBB
:10192C00E4800B0102040810204080901BBEE47E72
:10193C00019360BCA3FF543F30E509541FFEE493B0
:10194C00A360010ECF54C025E060A840B8E493A377
:10195C00FAE493A3F8E493A3C8C582C8CAC583CAA2
:10196C00F0A3C8C582C8CAC583CADFE9DEE780BE5A
:011C100000D3
:00000001FF
